:020000041000EA
:4000000000400208230100100D00000085010010000000000000000000000000000000000000000000000000000000008101001000000000000000008101001081010010E9
:400040008101001081010010810100108101001081010010810100108101001081010010810100108101001081010010810100108101001081010010810100108101001060
:400080008101001081010010810100108101001081010010810100108101001081010010810100108101001081010010810100108101001081010010810100108101001020
:4000C00010B5064C2378002B07D1054B002B02D0044800E000BF0123237010BD3C060008000000002C360010084B10B5002B03D00749084800E000BF07480368002B00D1C8
:4001000010BD064B002BFBD09847F9E700000000400600082C360010E8000008000000007047FFF7FDFF72B60F4C104DAC4209DA21686268A368043B02DBC858D050FAE747
:400140000C34F3E70A490B4A0020521A02DD043A8850FCDC084809490860BFF34F8F00F007F900F01DF8FEE730360010483600103C0600084C0800080000000808ED00E069
:40018000FEE7FEE700B504207146084202D0EFF3098001E0EFF30880043001F01BFCFEE710B5034800F06AF9002001F0CFFFFBE70000081010B5002001F08AF910BDC0468A
:4001C00070B56249E0239B00CB580F2213401A00D0329200525807210A40032A05D0042A06D0002A12D15A4814E05A4A106811E01A00C0329200554952581F210A40112ABF
:4002000006D0132A04D0FA20C00103E0524801E080200002002B36D14C4BB222D2009A5801211140B125ED005A59120F032422405B591B0F1C4207D0444C63591B0F032458
:400240002340012B02D102E0012300E00023002B01D0002901D1032A4BD13C4BB022D2009D58AD03AD0B3D495958C904C90C9C58240E01231C40013402F086F8684321005B
:4002800002F082F835E0012B33D1304BC822D2009A5801251540C024E4001A59120F03210A401B591B0F194207D028490B591B0F03210B40012B02D102E0012300E00023D9
:4002C000002B01D0002D01D1032A12D11F4DC022D200AB587F210B40A958090A1F263140AC58240C3440584302F04EF8210002F04BF8E0239B00154AD3581B090322134086
:40030000D840144C6060164B1D692D0AFC32154001351969090E013102F036F8A060290002F032F80500E06020610E4BC0180E4902F02AF820750D4BE818FA21890002F099
:4003400023F8A061C003E06170BDC0460000264000127A00C000000800366E0184050000000021403F420F0040420F00E703000010B5284802F002F8274CB022D200A358A3
:400380005B005B08A350E0218900635830208343635080235B04A350204A214BE250A02292010433E250FF221E4BE25001F0D4FFC0225200A35801218B43A35000F0BEFA89
:4003C000FFF7FEFEB0235B055B78002B04D0B0235B055B78DBB200E02123212B03D1124B0022DA605A60114C22008021042000F015FE2000103000F0A9FE0D4B1A68512330
:40040000D35C002B02D00B4800F016FF00F0DEFC10BDC046743500100000264001000200840500008C050000E00023405806000848080008102500108023024AD3580320DC
:40044000184070470000214010B501F056FB084980228C58074B2340074C23438B508823034AD358DB06FAD501F04BFB10BDC04600002140FCFF00000100FA0570B5050082
:40048000830504D0E821FF310F4801F075FA01F034FB0400FFF7D0FF032801D1FFF7D4FF0A4AB0239B00D55080215058084B03400848034353508823044AD358DB06FAD56E
:4004C000200001F01EFB70BD4425001000002140FCFF00000300FA05FEE7C046F0B50025002711E0BB00C658F3B2FF22964308E06A008A181478A419527822700135013B7E
:40050000DBB2002BF4D10137042FEBD9F0BDC04680221206054B1A600F23054A1360054A1360054A054B1A607047C04600001D4100031D4140031D4101001180000E1F41EC
:4005400010B50A00002101F0B4FF10BD10B501F0A7FF10BD30B587B0E249A022D2008B58032083438B50E04A116808688823CB58C3181868DD4908401860136818688424AA
:400580001B59C01803681B021B0A80256D042B430360106805680359EB1818680140196013683E229A5C002A06D0CE48E02189004258753CA24342503E229A5C002A06D054
:4005C000C848E021890042583024A24342503E229B5C002B07D0C349E02292008B588020000603438B500021012000F0A3FF0021022000F09FFF0021032000F09BFF0021C5
:40060000042000F097FF0021002000F093FF01A8B74903000A0032CA32C312CA12C300F0B7FF002802D00420FFF756FFAD49B14A8B588020000603438B50AF4801F062F809
:40064000002802D00420FFF747FFA64CAB4BE158AB4A0A40E250E158AA4A0A40E250E25880252D062A43E250043BE158A64A0A40E250E158A54A0A40802189010A43E25034
:40068000E258802109020A43E250A14A1168A14B0B40802149000B431360002001F0D2FD9D4BE2581543E550E158012291430A43E2506421002001F0A5F98B4B1B683F2263
:4006C0009A5C032A06D970229A5C02210A409349986842509A6874215B5AD2189168834B0B40A021C9000B4393607F4B1B6873229A5C0321914070229A5C7220185C140013
:4007000084402143022002400A43802109060A438021C900986842509A6852583F229A5C052A06D970229A5C03210A407C49986842509A6874215B5AD218D1686B4B0B4019
:40074000802109010B43D360674B1B6873229A5C03200400944070229A5C7221595C15008D402900214302400A43802109060A438021C900986842509A6852583F229A5CC8
:40078000132A06D970229A5C01210A406549986842509A6874215B5AD3185968534A0A405A60514B1B6873229A5C0321914070229A5C7220185C1400844021430120024084
:4007C0000A43802109060A438021C900986842509A6852583F229A5C142A07D970229A5C01210A40C5210901986842503F229A5C152A06D970229A5C01210A404A49986820
:4008000042503F229A5C162A06D970229A5C01210A404649986842503F229A5C172A06D970229A5C01210A404149986842503F229A5C392A06D970229A5C04210A403D49FE
:40084000986842509A6874215B5AD2181169274B0B40C42189010B431361234B1B6873229A5C0321914070229A5C7220185C140084402143042002400A43802109060A435D
:400880008021C900986842509A6852583F229A5C092A03D90021284A986881509A6874215B5AD2181168114B0B40802149000B4313600D4B1A687323D15C703B8B40190099
:4008C0007023D35C7220105C83400B43802109060B438021C9009068435093685B5807B030BDC0460000264048080008FF00FFFF5C250010087F0000400D030004050000B0
:40090000FEFCFFFFFFFF00FFFFF0FFFFFF8FFFFF00002740FFFCFFFF0C0500000C0C0000140C00004C0C0000540C0000580C00005C0C0000E40C0000240C0000F0B58BB01C
:400940009621002001F05EF801F034F8002801D101F020F8012001F013FB934A516C934B0B40E82189010B435364536C1B0AFF2213403A2B07D18C4A516C8D4B0B40E8216A
:4009800089010B435364002300228A498A4801F077FC002300228949312001F071FC002300228749874801F06BFC0023002286492A2001F065FC002300228449844801F0D9
:4009C0005FFC012300228349C220C00001F058FC002300228049814801F052FC002300227F49302001F04CFC002300227D497E4801F046FC002300227C492F2001F040FC6D
:400A0000002300227A497B4801F03AFC0023002279492E2001F034FC012300227749784801F02EFC012300227649774801F028FC012300227549764801F022FC002300227E
:400A40007449754801F01CFC002300227349744801F016FCFFF77EFD724A734B1A6000240CE0620012195300704AD318198B9A8AD88A00041043FFF763FD01340B2CF0D92D
:400A800000240AE0620012199300684AD3185A6E196ED86DFFF75AFD0134112CF2D9644D2800103063493431FFF718FD0F22624B1A60624A624B1A6084229200614B1A608F
:400AC000614A1368832149000B43136001AC22002B00243343CB43C243CB43C243CB43C221005A4800F07AF922002B00483343CB43C243CB43C243CB43C22100544800F0C4
:400B00006DF922002B006C3343CB43C243CB43C243CB43C221004F4800F060F94E4E22003300103383CB83C283CB83C283CB83C221004A4800F052F922003300343383CB44
:400B400083C283CB83C283CB83C22100444800F045F922003300583383CB83C283CB83C283CB83C221003F4800F038F922002B00483323CB23C223CB23C223CB23C221006B
:400B8000394800F02BF9220033007C3323CB23C223CB23C223CB23C22100344800F01EF9FFF7B6FC0BB0F0BD00002740FF00FFFFFFC5FFDF060E0040080E000004000040BB
:400BC0000F0D00400B0D000003000040070B00400C0B000000060040050E0040060E000002000040040E0040070E000001000040030E0040030E000005000040000A00404D
:400C0000030A0000040A0040020A0000050A0040010A00000E0E0040040E000000020040290200000300FA05F00121405C2500105C2700105C260010000064400701010061
:400C400000026440E001384000793440000032408000324080023240DC2700100003324080043240000532408005324080063240214B984230D00ED8402831D004D80028B3
:400C80001FD010282AD031E080282BD080235B00984229D02AE0194B984229D007D8A0231B0698420DD0164B984212D01EE0154B98420AD0144B984209D0144B984215D173
:400CC00001E0002016E0124814E0124812E0124810E0A020C0030DE007480BE00F4809E00F4807E00F4805E0034803E00E4801E0A420C0037047C04606005200010000F0C3
:400D0000090000A0040000F0050000F0030000F0010052000200520003005200010050000200500005005200FF00520070B5124B1A683123D35C002B04D1C421FF310F48F4
:400D400000F01AFE0C4B1D682C00B423EB582A6A944663441B68002B0BDB094B1868FFF787FF6B6801229A6063689B68002BFBD100E0044870BDC04648080008AC310010F7
:400D8000E80700080200500010B50D4B1861002805D002230370FD33437000234380094B1B6850229A5C002A08D051229B5C002B04D04F3A0449002000F0F8FA10BDC046A1
:400DC000E8070008480800086101000810B502481430FFF7D9FF10BDE807000870B505000C0000285DD000295DD0FF230A689A4303D099212D4800F0BFFDFF2322699A43CB
:400E000003D09A21294800F0B7FDA3685B0D03D09B21264800F0B0FD63685B0A03D09C21224800F0A9FDE3695B0F03D09D211F4800F0A2FD236A5B0F03D09E211B4800F029
:400E40009BFD1B4A11688B69EB1ADB0949691B01CB18216829607D211068415C6918E06808607E211068415C6918206908607F211068415C6918606908607C211068415C39
:400E80006918A06808606168A961116880228A5CAD18A2692A60E2691A60226A5A60002002E0044800E0034870BDC046EC3100104808000801005A0070B504000D000A4BF1
:400EC0001A68B423D3581B181B68002B0ADA0B0C03D00649064800F04FFD2D042D0C6560002000E0034870BD48080008D50200006C32001001008A0070B505000C00036836
:400F0000002B01DA002300E0084B002B0BD1EA60230C03D00649074800F02EFD2404240CAC60002000E0014870BDC04601008A00BB0200006C32001070B505000C1E03D14B
:400F40009921084800F018FD074B1A68B423D3585B191B68002B03DAEB682360002000E0024870BDAC3200104808000801008A0070B504000D00234B1A683123D35C834201
:400F800036D9002936D00B68DB0635D13123D35C984204D3C421FF311B4800F0EDFC194B1B681A6AB0215B5A5C431419174E34602B68DA080021686801F07BFA0021200051
:400FC000FFF77AFF3468002D03D111490E4800F0D3FC2A0000212000FFF78EFF00280DD10A4B18680021FFF767FF002808D108E0084806E0074804E0064802E0064800E080
:40100000054870BD480800086C320010000800089303000003018A0001018A0010B50400002A17D1002915D1124B1A683123D35C984204D3C421FF310F4800F09DFC0D4B26
:401040001B681A6AB0215B5A5C4314190B4B1C6000200EE0002A09D0002909D0074B59609A60191D2000FFF783FF02E0044800E0034810BD480800086C3200100008000823
:4010800003018A00F0B583B00D001C4B1B68DC68236883422DD947097B01C01A012383401E00002903D100F028FD019001E000230193124B18680368002B01DA002300E002
:4010C0000F4B002B0ED16368BF00DF193B68334203D0B3433B60002400E00A4C0021FFF7EBFE00E0084C002D04D1019800F009FD00E0064C200003B0F0BDC04600080008A7
:4011000001008A00020188000301880004018A000A4B1B68DA68136883420BD943095901401A0121814052689B009B580B4203D0034802E0034800E003487047000800088B
:401140000101880004018A0000018800034B1B68002B01D1014B18607047C0460C080008F0B5474680B404000F0090461E002D4B1B68002B03D1B5212B4800F0FDFB294B56
:401180001B682C2060431C18FF22150035402560330A13406360360CA660244B1A683123D35C9D4204D3C421FF31214800F0E4FB1E4B1A68B023D35A6B43116A8C466344BA
:4011C000236166683223D35C9E4204D3E021FF31174800F0D1FB154B1B681D6A80367601AD196561A668330C04D0FF214900104800F0C2FB330C03D00E490D4800F0BCFBFF
:401200003604330C1E43AE604346E36127620023A361069B002B02D000229B5EA38104BC9046F0BD0C080008EC320010480800086C320010FF010000F0B58FB0041E03D1FF
:401240005221294800F098FB6368032B03D95421254800F091FBE36A002B03D15821224800F08AFB236B002B03D159211E4800F083FB07AA1300210061C961C321C921C354
:4012800002AD290023001433C1CBC1C141CB41C10821535E0CAE3380144B1B6836215B5E07998C466344B370089B0D930B9B0A980096A26AE16AFFF753FF2B69E868002295
:4012C00000920021FFF74CFF216B300000F0E6FA0023F25E002A05DB1F231A401E3B9340034A13600FB0F0BDEC3200104808000800E100E0F8B505000F0016001C00002A99
:4013000003D1FD21224800F037FB224B1B68002B03D1FE211E4800F02FFB1E4B1B682C2128004843181879435918012213004D68AB401B044568AA4015000269002A20D032
:401340008F69002F1FD11268002A01DA002200E0114A002A19D132681204120C134333600369DE6001238B614C6204692B0C03D00A490B4800F000FB2A04120CA2600020D1
:4013800004E0084802E0084800E00748F8BDC046EC3200100C08000801008A00BB0200006C32001004028A0007028A0070B504000D0016000F4B1B68002B04D1AF21490038
:4013C0000D4800F0D9FA0B4B1B682C2060431C18236A002B04D1B1214900074800F0CCFAE369B34204D9236AB6009D51002000E0024870BD0C080008EC3200100A028A0086
:4014000070B582B0040000230193002804D1D221FF312D4800F0B0FA2369002B04D1E9214900294800F0A8FA6369002B04D1D421FF31254800F0A0FA236A002B04D1EA2109
:401440004900214800F098FA6269D5682B0C24D01B041360136820691C4B1A68B423D358C3181B68002B18DA01A9FFF765FD00280ED1019803681E0CFF221340E26993423E
:4014800007D29B00226AD358002B02D0984700E0002631002069FFF70FFD2D042D0C0FD063691D601B68636A002B03D098470023636203E0A36A002B00D098470023A361CB
:4014C00063691B6802B070BDEC3200104808000810B50400084B1B68002B04D1B221FF31064800F049FA044B1B682C2060431818FFF786FF10BDC0460C080008EC3200108C
:4015000010B50400094B1B689B6CC340DB0703D4BE21074800F030FA044B1B681B691034A402E3580F20184010BDC046480800082C330010134B1A683C23D35C83421DD93B
:40154000042904D94B1EFF3B9BB2132B18D8FF290CD91F2319400C4A0300C0339B009950D03080000423835000200AE007231940D0308000044BC150002002E0034800E0B7
:4015800002487047480800080000264001004A0070B5041E03D14A494A4800F0EDF9B023DB00494AD358002B00DA87E0474B22689A4203D94649434800F0DEF923689B0355
:4015C0009B0BE279002A02D08022520400E000221343B022D2003C498B50A2883D4B9A4204D984218900374800F0C6F92289344B9A4203D93849334800F0BEF9A388DB0444
:40160000D90C23891B04354A13400B43344A2E498B50A37A0F2B04D986218900294800F0ABF9E37A0F2B03D92E49264800F0A4F9A289284B9A4203D92B49224800F09CF903
:40164000A37A0F211940E27A1201FF2313400B43A289120225490A401343A27B1207C02189050A401343B122D20017498B50A379042B03D91E49134800F07EF9228A104BC9
:401680009A4204D9892189000E4800F075F90E4818494558184B1D40A3791B02E022D20013402B4343504558144B1D40238A1B040A4A13402B434350002000E0104870BDC3
:4016C000FF0100006C33001000002640FFFF030009020000FF1F0000110200000000FF0184050000190200001A02000000FF1F00230200008C050000FFF8FFFFFFFF00FE13
:4017000003004A0070B505003149324A8B588020000603438B502C0003E0012000F020F9013CB223DB002A4AD3585B0701D4002CF3D12749B122D2008858274B034080205C
:40174000800503438B50002D01D0002C0CD02049B022D2008B588020000603438B5003E0012000F0FDF8013CB223DB00184AD358DB0701D4002CF3D1002D01D0002C08D0FA
:401780001349B122D2008B58C020800503438B5013E00F4BB121C90058580F4A02408020800502435A5008395A58520052085A5008495A58520052085A50002D03D0002CAA
:4017C00003D0002002E0002000E0044870BDC046000026408C050000FFFFFFCF02004A0070B505000C001A4B1B6828229A5C012A15D1820807211000884327D19200AD1A39
:40180000ED00FF20A8401B6820339A181168AC4023004B40184004004C40146016E03A229B5EDBB2994203D176210A4800F0A4F8074B1B681B6807221540802212061543D9
:401840008022920194466444A400E55070BDC04648080008F433001070B504000D000B4B9A680B4B9A420CD1002904D13821FF31084800F081F81034054BA400E058E55094
:4018800003E01034A400044BE05870BD00ED00E000000008F433001000000010F0B5474680B482B0061E01914AD04368032B03D93221264800F060F80023F05E002804DBEF
:4018C000B178FFF78DFF002400E0214C0023F15E7368002912DB88081E4FC0308000C55903221140C900FC3290468A4095439A01434613408B402B43C35116E089B20F22D3
:401900000A40083A92080632920013481018476803221140C900FF252A008A4097439A012B0013408B403B4343600B4B9A680B4B9A4206D10023F05E0199FFF78DFF00E081
:40194000034C200002B004BC9046F0BDF43300100100560000E100E000ED00E00000000810B5034B1B78584300F0BEF810BDC046D400000801BEFEE770B50D00044C1822E9
:401980000100200000F09DFDA5610020FFF7F2FF00060008054B802212069A649B6C002B01DB002000E002487047C0460000274003004600054B8022120198585B68FF22BB
:4019C0001A4202D08023DB021843704700002640FEE7C04610B50A4B0268DA6142681A6282685A62C2689A620269DA6242691A6382695A63C2699A63FFF7EAFF10BDC046D4
:401A000000060008F0B5474680B4002801D0192300E064238B429B415B42304D2C682268A826A45BA41822680327BA433B401A4322602C682268A45BA2181668284CA04672
:401A4000264016602C682668AA229446A25A96193268BA43134333602A6813686546525BD3181A68444614401C60002805D010291BD921291BD8012024E0184B1B68552282
:401A80009A5C914215D956229A5C914213D957229A5C914211D958229A5C91420FD959229B5C99420DD804200CE000200AE0022008E0002006E0012004E0022002E0032063
:401AC00000E00520054A1268526813680F218B430343136004BC9046F0BDC04648080008FFFCFFFF000000000230800803D001300238FCD1C046C0467047EFF3108072B670
:401B0000704780F31088704710B5B0235B059B899BB2002B04D0B0235B059B899BB201E080235B0080225200934215D1184C23681968683A9B58C9180B680F208343963A74
:401B400013430B6021680C689C23CB58E318196881430A431A6019E00D4C2368196898229B58C918B02040050A4BC2580A4B13400A681343C022920013430B6022681168A6
:401B80009C23D358CB18054A82581A6010BDC0464808000848180000FFFCFFFF4418000030B5B0235B059B899BB2002B04D0B0235B059B899BB201E080235B0080225200D6
:401BC000934215D1184C23681968683A9B58C9180B680F208343953A13430B6021680C689C23CB58E318196881430A431A6019E00D4D2B68196898229B58C918B024640534
:401C0000C12040012258094B13400A681343C022920013430B602A6811689C23D358CB1822581A6030BDC04648080008FFFCFFFFB0235B059B899BB2002B04D0B0235B057E
:401C40009B899BB201E080235B008022520093420DD1104B1B681A6898215B58D21811680D4B0B40C021C9010B43136011E0094B1B68196898229B58C918084BB0225205DC
:401C8000D258074B13400A681343C022920013430B60704748080008FF8FFFFF18180000FFFCFFFF30B5B0235B059B899BB2002B04D0B0235B059B899BB201E080235B0089
:401CC0008022520093420DD1134B1B681A6898215B58D2181168114B0B408021C9010B43136018E00C4D2B68196898229B58C918B02464050A4822580A4B13400A681343CC
:401D0000C022920013430B602A6811689C23D358CB1822581A6030BD48080008FF8FFFFF4C180000FFFCFFFF10B5B0235B059B899BB2002B04D0B0235B059B899BB201E087
:401D400080235B0080225200934217D10020FFF7D7FBB0235B055B78002B04D0B0235B055B78DBB200E02123222B03D8002803D1013004E0012002E0002000E0012010BDE6
:401D800030B585B004000D00022807D9042805D0032803D02A492B48FFF7EEFD6B1EDBB2012B07D9042D05D0082D03D026492548FFF7E2FDA400254BE458042D13D0012DB5
:401DC0001CD112E0A3682B420BD1E3681A6802925B6801930393290002A8236898471B4B5C61646902E0002000E00020002C24D0174B9842E6D1012DE4D11EE0022D01D13E
:401E000004E01C006369002BFBD104E00F4B5C69002C00D0246900200DE0A3682B4209D1E3681A6802925B6801930393290002A8236898472469002CEFD105B030BDC04648
:401E4000B209000038340010B309000010080008FF004200F8B50700012803D93D493E48FFF78AFDB0235B055B78002B04D0B0235B055B78DBB200E021239DB2B0235B058E
:401E80009B899BB2002B04D0B0235B059E89B6B201E0802676000020FFF732FB002814D180235B009E4212D1222D12D82B4B1B685C682B4821582B4B19403B0680225204F8
:401EC00013400B432350002404E0274C02E0264C00E0254C80235B009E4201D1222D03D880235B009E4232D01C4B1A683123D35C002B04D1C421FF311C48FFF73DFD174B7D
:401F00001B681D6A80235B009E4203D1002F05D0174A06E0002F03D0164A02E0164A00E0164A01212800FEF7E7FF00280FD10B4B1A68B423D3585B191B68002BF7DBEB6868
:401F40001B0E1B06A0221206934200D100242000F8BDC0464C0A0000383400104808000818F00000FFFFFFFE04004200AC310010010100300300000C010000300100000CB9
:401F8000F8B50500012804D9822109012948FFF7F3FCFFF7C9FE002849D0FFF7AEFD0700002D11D10021244B244AD150E823DB00B0225205D65CF6B20120FFF74BFF041E26
:401FC00019D1FFF7A1FD16E0B02252051C4BD0581A4B194958501B49565CF6B21A481A581F218A4314390A431A500320FFF7B8FCFFF758FE0024002C15D11049124A8B58BC
:402000001F20834306401E438E50002D02D1FFF70FFE08E00720FFF7A3FCFFF7C1FD0020FFF718FF04003800FFF76BFD00E0074C2000F8BD38340010307F0000000026405B
:4020400010180000410700001CFF00000300420010B5041E03D115491548FFF78DFC154B1A68D168F222D2018A5822601B68F022D201D9688A5862600F4AD9688A58A2606A
:402080000E4AD9688A58E2600D4AD9688A5822610C4AD9688A5862610B4AD9688A58A261DA680A4BD358E36110BDC046A10A0000383400104808000804780000087800005B
:4020C0000C78000010780000147800001878000010B5041E03D114491448FFF74DFC144B1B68F022D201D96860688850114AD968A0688850104AD968E06888500F4AD9688C
:40210000206988500E4AD968606988500D4AD968A06988500C4AD968E0698850DA682168F223DB01D15010BDC90A0000383400104808000804780000087800000C78000002
:4021400010780000147800001878000070B50500012804D9A62189003548FFF70DFC354B5B68002B05D001210120FFF709FE040000E00024002C53D1FFF7BFFC06002D4BB5
:402180005B68002B03D004210120FFF7F9FD2A4B1B6843229A5C002A08D09A68E023D358DB0603D523481830FFF752FFB0235B059B899BB2002B04D0B0235B059B899BB2AD
:4021C00001E080235B0080225200934203D1280000F096F909E0194A116904230B431361012D01D030BF00E020BF134B1B6843229A5C002A08D09A68E023D358DB0603D539
:402200000C481830FFF764FF3000FFF77AFC094B5B68002B09D008210120FFF7B1FD04E002210120FFF7ACFD054C200070BDC04638340010100800084808000800ED00E0D8
:40224000FF004200042805D10B4A116804230B4313600FE0094B1A681168A023D358CB180006C022920410401860034A136804218B4313607047C04610E000E048080008FD
:40228000F0B54F464646C0B483B006000D0000921F00012B03D95B212B48FFF76DFB330B03D05C212848FFF767FB284B1A686E23D35A9B08013B264A13432A009A4301D111
:4022C0006B0003D45D212048FFF756FB32006A40F0231B011A40141E2FD1FFF70EFC01901A4B18686C23C15A83689C4661446E23C35A9A08013A2A40920090466A22825A81
:4023000015402D0A5D432A00424455182A68920A9202FF231E40009B002B01D00134FF3426437F0280239B001F403E4316432E600198FFF7E6FB002000E0064803B00CBCEB
:4023400090469946F0BDC0467834001048080008000F00400100CE000749C02252008B589B009B088020C00503438B508B588020000603438B50704700002640014B18600D
:402380007047C04648080008002243088B4274D303098B425FD3030A8B4244D3030B8B4228D3030C8B420DD3FF22090212BA030C8B4202D31212090265D0030B8B4219D325
:4023C00000E0090AC30B8B4201D3CB03C01A5241830B8B4201D38B03C01A5241430B8B4201D34B03C01A5241030B8B4201D30B03C01A5241C30A8B4201D3CB02C01A52419A
:40240000830A8B4201D38B02C01A5241430A8B4201D34B02C01A5241030A8B4201D30B02C01A5241CDD2C3098B4201D3CB01C01A524183098B4201D38B01C01A52414309ED
:402440008B4201D34B01C01A524103098B4201D30B01C01A5241C3088B4201D3CB00C01A524183088B4201D38B00C01A524143088B4201D34B00C01A5241411A00D20146FC
:40248000524110467047FFE701B5002000F006F802BDC0460029F7D076E770477047C046002310B59A4203D0CC5CC4540133F9E710BD03008218934202D019700133FAE7B2
:4024C0007047030030B5002A0DD00C7801335D1E013A2C700131002CF5D19A189A4202D01C700133FAE730BDF8B5C046F8BC08BC9E467047F8B5C046F8BC08BC9E4670478E
:4025000001B40248844601BC604700BF350300080300000001000000010000000000000005036000040000000100000000000000010000000604600008000000C8070008B3
:40254000B501001073797374656D5F70736F63365F636D30706C75732E630000F4010000140004010A0009050800000063010000002034407400802034407400002234403A
:402580007400802234407400002434407400802434407400002634407400802634407400002834407400802834407400002A34407400802A34407400002134407C2800105C
:4025C00090000000002334400C29001090000000002534409C29001090000000002734402C2A00109000000000293440BC2A001090000000002B34404C2B00109000000077
:4026000000603440DC2B00107C00000080603440582C00107C00000000613440D42C00107C00000080613440502D00107C00000000623440CC2D00107C000000806234405F
:40264000482E00107C00000000633440C42E00107C00000080633440402F00107C00000000643440BC2F00107C00000080643440383000107C00000000653440B430001049
:402680007C00000080653440303100107C0000000220043305010604070409080B100E020F02100F1104121013011504160817031C3F1D1821182501270629102B082C3CEC
:4026C0002E0130303104320C33183501360337023F445C045D046090630186018A018F01920196019701A501B401B701BF40DC04DD04E009E3010F011101170131013F019D
:402700005D0463018003810B840C8510880389048A088D048E109010911094019509960297029810990A9B019C029D049E01A103A204A308A510A80CA904AC0CAD10B10329
:40274000B203B304B40CB50AB610B710B908BE44BF04DC04DD04E090E3012845AC30681E6C87ACD2000104011801190133283440322A34400271344003723440047834406E
:40278000080000000000000000000000006000000000000000000000000000000000000000000000020000000000000000000000600000000000000000000000000000004F
:4027C0000000000000000000030000000000000000000000680000000000000000000000000000001212000000000000070000000000000000000000CC6600BA0000000057
:4028000000000000000000001313030000001D1D7000000000000000000000000000666600000000000000000000000000000000030303007F000000000000000000000071
:40284000000066060000000000000000000000000000000003030300400000000000000000000000000000660000000000000000000000000000000000000300000000003A
:402880000000000000000000FFFFFFFFFFFFFFFFFFFFFFFFFFFFFFFFFFFFFFFFFF000000FFFFFFFFFFFFFFFFFFFFFFFFFFFFFFFFFFFFFFFFFF000000000000000000000042
:4028C00000000000001F0000FF00000000000000FFFFFFFFFFFFFFFFFFFFFFFF11111111111111111111111111111111111111111111D111111111111111D11111111111E2
:40290000111111111111111111111111000000000000000000000000FFFFFFFFFFFFFFFFFFFFFFFFFFFFFFFFFFFFFFFFFF000000FFFFFFFFFFFFFFFFFFFFFFFFFFFFFFFFF0
:40294000FFFFFFFFFF00000000000000000000000000000000000000001002000F000000FFFFFFFFFFFFFFFFFFFFFFFF111111111111111011D11111111011111111111135
:402980001111F111111111111111F11111111111111111111111111111111111000000000000000000000000FFFFFFFFFFFFFFFFFFFFFFFFFFFFFFFFFFFFFFFFFF00000090
:4029C000FFFFFFFFFFFFFFFFFFFFFFFFFFFFFFFFFFFFFFFFFF000000000000000000000000000000000000000000000000000406FFFFFFFFFFFFFFFFFFFFFFFF11111111AA
:402A00001111111011F1111111101111111111111111F111101111111111F11111111111011111111111111111111111000000000000000000000000FFFFFFFFFFFFFFFF25
:402A4000FFFFFFFFFFFFFFFFFFFFFFFFFF000000FFFFFFFFFFFFFFFFFFFFFFFFFFFFFFFFFFFFFFFFFF00000000000000000000000000000000000000000F000007F0000072
:402A8000FFFFFFFFFFFFFFFFFFFFFFFF11111111111111D011F1111111101111111111111111F111D01111111111F1111111111101111111111111110111111100400000B5
:402AC0000000400000000000433F410FFF4F2F34F23305F0FFFFFFFFFFFFFFFFFF0000000FF433FFFF3FFFF3FFF5F5FFFFFFFFFFFFFFFFFFFF0000000000000000000000BE
:402B00000000000000000000000300F10000004FFFFFFFFFFFFFFFFFFFFFFFFF13131210111113F011F5111311100311114401114121F113F01111011131F3111111111D1C
:402B400041111111111111113111111100000000000000000000000040034011F026401220331300FFFFFFFFFFFFFFFFFF000000FFFFFFFFFFFFFFFFFF02F5FFFFFFFFFFF7
:402B8000FFFFFFFFFF00000000000000000000000000000000000A000000000000030000FFFFFFFFFFFFFFFFFFFFFFFFEF111115111111F313F8111F1113412111112111B8
:402BC0001315F141131111511111FF111111111F11111111111115111111111100000000000000001F1F1F1F1F1F1F1F1F1F1F1F1F1F1F1F1F1F1F1F1F1F1F1F1F1F1F1F3D
:402C00001F1F1F1F000000000000000000000000000D00000600000000000000FFFFFFFFFFFFFFFFFFFFFFFF11111111113111111111111111111111111111111111111159
:402C400011111111111111111111111114111111111111111111111100000000000000001F1F1F1F1F1F1F1F1F1F1F1F1F1F1F1F1F1F1F1F1F1F1F1F1F1F1F1F1F1F1F1FD9
:402C8000000000000000000000000000000000000000000007000000FFFFFFFFFFFFFFFFFFFFFFFF111111111111111111111111111111111111111111111111111111113D
:402CC00011111111111F111111111111111111111111114100000000000000001F1F1F1F1F1F1F1F1F1F1F1F1F1F1F1F1F1F1F1F1F1F1F1F1F1F1F1F1F1F1F1F0000000062
:402D00000000000000000000000000000000000000000000FFFFFFFFFFFFFFFFFFFFFFFF11111111111111111111111111111111111111111111111111111111111111117F
:402D4000111F111111111111111111111111111100000000000000001F1F1F1F1F1F1F1F1F1F1F1F1F1F1F1F1F1F1F1F1F1F1F1F1F1F1F1F1F1F1F1F000000000000000055
:402D800000000000000000000000000000500000FFFFFFFFFFFFFFFFFFFFFFFF11111113111111111111111111111111111111111141111111111111111111111115311115
:402DC00011111111111111111111111100000000000000001F1F1F1F1F1F1F1F1F1F1F1F1F1F1F1F0C1F1F1F1F1F1F1F1F1F1F1F1F1F1F1F0000000000000000000000003A
:402E000000000000000000300000000FFFFFFFFFFFFFFFFFFFFFFFFF111111111111111111111111111111111111111111011111111111111111D111111111111111111107
:402E4000111111111111111100000000000000001F1F1F1F1F1F1F1F1F1F1F1F1F1F1F1F1F1F1F1F1F1F1F1F1F1F1F1F1F1F1F1F00000000000000000000000000000000EA
:402E80000000000000000000FFFFFFFFFFFFFFFFFFFFFFFF111111111111111111111111111111111111111111111111111111111111111111111111111111111111111132
:402EC0001111111100000000000000001F1F1F1F1F1F1F1F1F1F1F1F1F1F1F1F1F1F1F1F1F1F1F121F1F1F1F1F1F1F1F000000000000000000000000001F0000000000009C
:402F000000000000FFFFFFFFFFFFFFFFFFFFFFFF111111111111111111111111E111111111111111111111111111111111111111111111111111111111111111111111119D
:402F400000000000000000001F1F1F1F1F1F060A1F0800081F1F1F1F1F1F1F1F1F1F1F1F1F1F1F1F1F1F1F1F0000000000000000000000000000000000F00F0000000000ED
:402F8000FFFFFFFFFFFFFFFFFFFFFFFF1111110111111D11110111111D111111111111111111111111111111111111111111111111111110111111111111111100000000F6
:402FC000000000001F1F1F1F1F1F1F1F1F1F1F1F1F1F1F1F1F1F1F1F1F1F1F1F1F1F1F1F1F1F1F1F000000000000000000000000000000000000000000000F0FFFFFFFFFD7
:40300000FFFFFFFFFFFFFFFF411111D111111111110111111211111111111111111111111111111111111111111111111111111D111111111111111100000000000000007B
:403040001F1F1F1F1F1F1F1F1F1F1F1F1F1F1F1F1612020A04081F101F1F1F1F1F1F1F1F00000000000000000000000000000000000000000FF00000FFFFFFFFFFFFFFFF02
:40308000FFFFFFFFF0111111111111111101111D1F011111101111111110111111111110111111111111111111111111D11111111111111100000000000000001F1F1F1FD2
:4030C0001F1F1F1F1F1F1F1F1F1F1F1F1F1F1F1F120A111F1F1F1F1F1F1F1F1F00000000000000000000000000000000000F00FF0F0000F0FFFFFFFFFFFFFFFFFFFFFFFF9B
:40310000FD1111111111111111D1111F1F0111111D11111111DD111111111110111111111111111111111111111111111111111100000000000000001F1F1F1F1F1F1F1FD8
:403140001F1F1F1F1F1F1F1F1F1F1F1F1F1F1F1F1F1F1F1F1F1F1F1F00000000000000000000000000001F0000000000000F0000FFFFFFFFFFFFBFFFFFFFFFFF1111111141
:40318000111111111111111111D11111111111111111111111111111111111111111111111111111111111111111111147656E6572617465645F536F757263655C50536F96
:4031C00043365C70646C5C647269766572732F7065726970686572616C2F6970632F63795F6970635F6472762E68000047656E6572617465645F536F757263655C50536FE5
:4032000043365C70646C5C647269766572735C7065726970686572616C5C6770696F5C63795F6770696F2E630000000047656E6572617465645F536F757263655C50536FE7
:4032400043365C70646C5C647269766572735C7065726970686572616C5C6770696F5C63795F6770696F2E680000000047656E6572617465645F536F757263655C50536FA2
:4032800043365C70646C5C647269766572735C7065726970686572616C5C6970635C63795F6970635F6472762E68000047656E6572617465645F536F757263655C50536F9D
:4032C00043365C70646C5C647269766572735C7065726970686572616C5C6970635C63795F6970635F6472762E63000047656E6572617465645F536F757263655C50536F62
:4033000043365C70646C5C647269766572735C7065726970686572616C5C6970635C63795F6970635F706970652E630047656E6572617465645F536F757263655C50536FBF
:4033400043365C70646C5C647269766572735C7065726970686572616C5C70726F745C63795F70726F742E630000000047656E6572617465645F536F757263655C50536F7A
:4033800043365C70646C5C647269766572735C7065726970686572616C5C737973636C6B5C63795F737973636C6B2E630000000047656E6572617465645F536F7572636500
:4033C0005C50536F43365C70646C5C647269766572735C7065726970686572616C5C737973636C6B5C63795F737973636C6B2E680000000047656E6572617465645F536FFC
:40340000757263655C50536F43365C70646C5C647269766572735C7065726970686572616C5C737973696E745C63795F737973696E742E630000000047656E657261746574
:40344000645F536F757263655C50536F43365C70646C5C647269766572735C7065726970686572616C5C737973706D5C63795F737973706D2E63000047656E65726174658B
:40348000645F536F757263655C50536F43365C70646C5C647269766572735C7065726970686572616C5C747269676D75785C63795F747269676D75782E630000000020406E
:4034C00000002440000000400000000000002340000030400000314000009F40000022400000104002020202020202020210101D800017007500FF0306020636041020007E
:40350000000000007FC0000000040000000000000019324B647D00804000080B100000000000FF012002001F00800004FF081018001000140018001C4044484C500000003A
:40354000081000000800000004000000041000000012000004210000002100000016000040114002C41300138013A013200000001C0000000000214000002540000001409F
:403580000000344000002440000031400000324000001F410000234000001140010101010101010101101010800019005500F0000501053B04101C01010000000FC00000DE
:4035C0000004000001010101011D3A57789600082000101208000000001F00000010000F002000023F06080E00080009000A000B24282C3034000000100000009000000057
:4036000088000000080000008000000004F0000000F00000400200002005A000D00100018001A0012000000010000000000000000000001000000008C000000050360010FD
:40364000C0000008400500003C060008100200000048E80100127A0000093D0000093D0000093D0004000000A00F00000000D007E9000010C10000100000000010B5000435
:40368000400B27D0144B1A68146AB023D15ACA00531AE3181B68002BF4DA3E220F4B1A600F4A104B1A60104B0621A322D20099500E4A98509B58084B1A68106AB023D15AD9
:4036C000CA00531AC31800225A60084B064AD358002BFADA10BDC04648080008040126401E1F000008012640000026401C05000010B54378FF2B20D100F02AFA04000F4B39
:403700001A683123D35C042B04D8C421FF310C4800F006FA094B1A68116AB023D35A9B00CB18DB685A68116801230B4313601368DB07FCD4200000F0FBF910BD4808000898
:40374000AC310010F0B585B001900291544B1A683123D35C002B04D1C421FF31514800F0DFF94F4B1B681E6AB4229A58971950229B5C002B77D000F0E3F9050003283CD143
:40378000474B1A683123D35C062B04D8C421FF31444800F0C5F9424B1968B023CB5A5A00D21853000A6A94466344B4228A58D3181B68002B23DB002000F0E2F93A4B9842EB
:4037C0001FD03A4B1A6900230021012000F0A0F9002803D0364C17E0013400E00024002000F0CEF9304B984202D0324B9C42F3D9304B9C4207D92E4C06E0002404E02C4CF9
:4038000002E02B4C00E00024002C46D100F0A0F90390294B294AD358002B13DA234A0121300000F0A5F900280ED10298FFF726FF019B002B0AD03B68002BFCDB00F090F9DA
:40384000040004E01A4C02E0194C00E01C4C032D05D10121002000F053F90028F9D1039800F066F919E000F073F905000F4A0121300000F07DF9002809D1019B002B08D0FF
:403880003B68002BFCDB00F06BF9040002E0084C00E00B4C280000F04BF9200005B0F0BD48080008AC31001001018800E807000805005200EF4902001C05000000002640E2
:4038C00001005000F0B54F464646C0B4824B1A685468B0235B055B78002B04D0B0235B055B78DBB200E02123212B67D1B023D15ACB005B1A116A8C46634419680029F5DA47
:40390000DD6802212943D960B023D15ACB005B1A116A8C466344D968C9073ED5D9680904090C8C4684271168D559A84641440968090A0904FF26360431400D008826116895
:40394000894691598846C14449460968090A0906294365462943D9601168D359C9180A685E4B98461A4090252D012A430A605A4B99461A6813689C46925962441368414654
:4039800019400B002B4313604B461A681568D15969180B689359EB181B684F4B1A68B021555AEB005B1B156AAC46634400255D60156A515ACA00531AEB185B68484A116978
:4039C00004230B431361012801D030BF00E020BF414B1A68B023D15ACB005B1A116A8C46634419680029F3DAB02149054978002904D0B02149054978C9B200E021212129DB
:403A000032D1D968C90722D510688421525880180468324A1440DB681B0C1B02FF2109020B40234303602C4B19688823C8580B689C46604403681A400D6AB023CC5AE10048
:403A40000B1BEB18DB681B0E1B021A430260224B1A68106AB023D15ACA00531AC318DA6802218A43DA6028E086235B00E358002B23D11C4807681C4BA321C9005E581B4AA8
:403A8000904615681A4A0260062058503E21424611600631174A9950164B134AD358002BFADA154A86235B00E2500E4B1F60A323DB000D4AD6500D4B1D60074B1A68106AB0
:403AC000B023D15ACA00531AC31800225A600CBC90469946F0BDC04648080008FF00FFFF00ED00E00801264000002640040126401E1F00001C050000AAAAAAAA0000000042
:403B000001B40248844601BC604700BF8510001001B40248844601BC604700BFF512001001B40248844601BC604700BF7919001001B40248844601BC604700BF031B001049
:403B400001B40248844601BC604700BF3904001001B40248844601BC604700BFFB1A001001B40248844601BC604700BF2D0D001001B40248844601BC604700BFF90E0010C2
:403B800001B40248844601BC604700BF11110010000000000000000000000000000000000000000000000000000000000000000000000000000000000000000000000000E7
:403BC00000000000000000000000000000000000000000000000000000000000000000000000000000000000000000000000000000000000000000000000000000000000C5
:0200000490303A
:02000000BA3212
:0200000490501A
:0C0000000005E20721002101E218DB32BC
:00000001FF