:020000041008E2
:4000000000780408EB0208100D0000005103081051030810510308105103081000000000000000000000000000000000517908104D03081000000000417B0810A97B081020
:400040004D0308104D0308104D0308104D0308104D0308104D0308104D0308104D0308104D0308104D0308104D0308104D0308104D0308104D0308104D0308104D03081000
:400080004D0308104D0308104D0308104D0308104D0308104D0308104D0308104D0308104D0308104D0308104D0308104D0308104D0308104D0308104D0308104D030810C0
:4000C0004D0308104D0308104D0308104D0308104D0308104D0308104D0308104D0308104D0308104D0308104D0308104D0308104D0308104D0308104D0308104D03081080
:400100004D0308104D0308104D0308104D0308104D0308104D0308104D0308104D0308104D0308104D0308104D0308104D0308104D0308104D0308104D0308104D0308103F
:400140004D0308104D0308104D0308104D0308104D0308104D0308104D0308104D0308104D0308104D0308104D0308104D0308104D0308104D0308104D0308104D030810FF
:400180004D0308104D0308104D0308104D0308104D0308104D0308104D0308104D0308104D0308104D0308104D0308104D0308104D0308104D0308104D0308104D030810BF
:4001C0004D0308104D0308104D0308104D0308104D0308104D0308104D0308104D0308104D0308104D0308104D0308104D0308104D0308104D0308104D0308104D0308107F
:400200004D0308104D0308104D0308104D0308104D0308104D0308104D0308104D0308104D0308104D0308104D0308104D0308104D0308104D0308104D0308104D0308103E
:400240004D0308104D0308104D0308104D0308104D0308104D0308104D0308104D0308104D0308104D0308104D0308104D0308104D0308104D0308104D0308104D030810FE
:400280004D0308104D0308104D03081010B5054C237833B9044B13B10448AFF300800123237010BDAC4C0208000000005C9B0810084B10B51BB108490848AFF3008008485C
:4002C000036803B910BD074B002BFBD0BDE81040184700BF00000000B04C02085C9B08108C430208000000007047FFF7FDFF72B6104C114DAC4209DA21686268A368043BC8
:40030000A2BFC858D050FAE70C34F3E70B490C4A00209142BCBF41F8040BFAE709480A490860BFF34F8F00F0F5F900F04BF800F01DF8FEE7609B0810789B0810AC4C020809
:4003400098D302080040020808ED00E0FEE7FEE700B504207146084202D0EFF3098001E0EFF30880043002F09FFAFEE780B582B002AF62B607F0BAFF0E4808F04FF800F0B4
:40038000ADFB00F06BFC00F0CFFC00F033FD00F097FD00F0E7FF00F01FFA0023019305230093054B64220549054806F025F906F00FFBFEE7D88C0810D0420208E48C081004
:4003C000910B081080B500AF0D4802F025FB00F01FF800F025F800220021042001F0B4FC084801F045FF084B1B6893F85130002B02D0064801F050FF01F0AEFA00BF80BD5B
:40040000B88F0810C84C02085CD20208F48C081080B400AF00BFBD465DF8047B704700BF80B491B000AFAE4BD3F8803303F00F037B63AB4A7B6BD03352F8233003F007038A
:400440003B633B6B042B36D801A252F823F000BF650408106B04081071040810B7040810770408109F4BFB6328E09F4BFB6325E09D4BFB6322E09A4A7B6BC03352F8233002
:4004800003F01F03FB62FB6A112B07D0132B09D0102B0BD14FF4FA43FB630BE04FF40043FB6307E04FF40043FB6303E04FF4FA43FB6300BF02E08C4BFB6300BF7B6B002B45
:4004C00060D1874BD3F8903503F00103002B14BF0123002387F82B30814BD3F8883503F040531B0F032B0CBF0123002387F82A307B4BD3F8883503F040531B0F002B07D036
:40050000774BD3F8883503F040531B0F012B01D1012300E0002387F8293097F8293003F0010387F8293097F82930002B03D097F82B30002B03D197F82A30002B1FD0684B88
:40054000D3F88035C3F311037B62654BD3F88435C3F30C033B62624BD3F8803503F080731B0E0133FB61FA6B3B6AB2FBF3F37A6A02FB03F2FB69B2FBF3F3BB6360E0FB6BC4
:40058000BB635DE07B6B012B58D1554BD3F8403603F00103002B14BF01230023FB76504BD3F8003603F040531B0F032B0CBF01230023BB764A4BD3F8003603F040531B0F14
:4005C000002B07D0464BD3F8003603F040531B0F012B01D1012300E000237B767B7E03F001037B767B7E002B02D0FB7E002B02D1BB7E002B1FD03A4BD3F8003603F07F0305
:400600007B61374BD3F8003603F4F8531B0A3B61334BD3F8003603F4F8131B0CFB60FB6B7A6902FB03F23B69B2FBF3F2FB68B2FBF3F3BB6304E0FB6BBB6301E0FB6BBB6303
:40064000274BD3F8803303F030031B09BA6B22FA03F3BB63254ABB6B1360254BD3F8903003F47F431B0A0133BB60214B1B6903F07F431B0E01337B60BA6B7B68B2FBF3F343
:400680001C4A1360BA6BBB68B2FBF3F3BB631A4ABB6B1360184B1B68184A1360174B1B6803F5742303F23F23154AA2FB03239B0CDAB2144B1A70114B1B6803F2E733124A5D
:4006C000A2FB03239B09114A1360104B1B68DB030F4A136000BF4437BD465DF8047B70470000264000127A0000366E01044302080000214008430208004302080C43020831
:4007000083DE1B4314430208D34D6210104302081843020880B582B000AF02F062F97860094A094BD3F8883043F47003C2F88830BFF34F8FBFF36F8F786802F056F900BFA4
:400740000837BD4680BD00BF00ED00E080B500AF012001F01BFF00BF80BD00BF80B483B000AF0346FB80B7F90630002B0BDB0949B7F906305B09FA8802F01F02012000FA86
:4007800002F241F8232000BF0C37BD465DF8047B704700BF00E100E080B483B000AF78607B681B6843F000427B681A6000BF0C37BD465DF8047B704780B500AF0249034889
:4007C00003F018FA00BF80BD48D302080000644080B400AF72B6FEE780B584B000AF204B61221A701E4B61225A701E4B74221A701C4B65225A701C4B72221A701A4B682244
:400800005A701A4A1A491B4802F032FFF860FB68002B01D0FFF7DCFF174A1849154803F049F8B860BB68154A934201D9FFF7D0FF1349144801F09CFF78607B68002B01D0BD
:40084000FFF7C6FF0F4BB3F900301846FFF786FF0848FFF7A1FF00BF1037BD4680BD00BF54BA020858D20208489A020848D30208D89408100000644015287F00801A0600E2
:40088000B9070810AC8D081080B483B000AF0346FB80B7F90630002B0BDB0949B7F906305B09FA8802F01F02012000FA02F241F8232000BF0C37BD465DF8047B704700BF33
:4008C00000E100E080B483B000AF78607B681B6843F000427B681A6000BF0C37BD465DF8047B704780B483B000AF786039603A687B685A6000BF0C37BD465DF8047B70472B
:4009000080B483B000AF786039603A687B689A6000BF0C37BD465DF8047B704780B582B000AF786039601B4B1B6893F833301A463B689A4204D840F2FA51174801F0A0FF9C
:40094000144B1B68B3F85A301A467B681A44114B1B68B3F85C3019463B6803FB01F3134419460C4B1B68B3F85A301A467B681A44084B1B68B3F85C3018463B6803FB00F350
:4009800013441B6843F000430B6000BF0837BD4680BD00BF5CD20208288D081080B582B000AF786039601A4B1B6893F833301A463B689A4204D840F2B361164801F060FF6E
:4009C000134B1B68B3F85A301A467B681A44104B1B68B3F85C3019463B6803FB01F313441A46012313610A4B1B68B3F85A301A467B681A44064B1B68B3F85C3019463B682D
:400A000003FB01F313441B6900BF0837BD4680BD5CD20208288D081080B584B000AFF860B9607A60164B1B6893F833301A46BB689A4204D840F20371124801F021FF7B6842
:400A400023F00103002B04D040F204710D4801F017FF0B4B1B68B3F85A301A46FB681A44074B1B68B3F85C301946BB6803FB01F313441A467B68936100BF1037BD4680BDDA
:400A80005CD20208288D081080B483B000AF786039607B683A689A6000BF0C37BD465DF8047B704780B483B000AF786039607B683A689A6100BF0C37BD465DF8047B704704
:400AC00080B483B000AF786039607B683A685A6100BF0C37BD465DF8047B704780B500AF07F01AFB07F050FB1F4A04211F4804F071FF10211D48FFF7C7FF1D4A00211B48D7
:400B000004F068FF01211948FFF7BEFF194A0221164804F05FFF04211448FFF7B5FF164A0121124804F056FF02211048FFF7ACFF124A03210D4804F04DFF08210B48FFF7FB
:400B4000A3FF0F4B47F67A221A600E4B47F679121A600D4B47F678021A600C4B47F277721A6000BF80BD00BF109A081000003840C4990810A89A08105C9A0810EC940810A5
:400B8000208A02081C7A020850AA02084C9A020880B588B000AF78607B68FB61FB699B68BB61FB691B687B61FB695B683B61FB691B7BFB73FB7B032B1CD801A252F823F0B1
:400BC000D10B0810D90B0810E30B0810ED0B0810002005F0C9FE0EE046F2A81005F0C4FE09E04CF2503005F0BFFE04E0194805F0BBFE00E000BF05F0E1FF0346BB6007F162
:400C00000803B969184605F035FEFB7B032B1FD801A252F823F000BF290C0810330C08103D0C0810470C081010210B48FFF73AFF0FE001210848FFF735FF0AE0042106489C
:400C4000FFF730FF05E002210348FFF72BFF00E000BFD4E7F82401000000384080B586B000AF2049204804F03BFC78617B69002B01D000F08BF91C4B7B6000233B72032372
:400C8000FB6000233B743B1D1A460121174804F029FE78617B69002B01D000F077F914491148FFF71FFE13490F48FFF729FE1249124801F05DFD114BB3F900301846FFF775
:400CC000E3FD012201210948FFF7A6FE01210748FFF724FE0548FFF7F5FD00BF1837BD4680BD00BF749508104C7802080000284080011D41288A0208010D0810C48D081098
:400D000080B500AF01210648FFF748FE10210548FFF7D6FE012000F099FA00BF80BD00BF000028400000384080B586B000AF2049204804F0D5FB78617B69002B01D000F044
:400D400025F91C4B7B6000233B720323FB6000233B743B1D1A460421174804F0C3FD78617B69002B01D000F011F914491148FFF7B9FD13490F48FFF7C3FD1249124801F0DC
:400D8000F7FC114BB3F900301846FFF77DFD012204210948FFF740FE04210748FFF7BEFD0548FFF78FFD00BF1837BD4680BD00BFE0950810687802080000284080011D41AE
:400DC000247A0208CD0D0810DC8D081080B500AF04210648FFF7E2FD01210548FFF770FE022000F033FA00BF80BD00BF000028400000384080B586B000AF2049204804F020
:400E00006FFB78617B69002B01D000F0BFF81C4B7B6000233B720323FB6000233B743B1D1A460321174804F05DFD78617B69002B01D000F0ABF814491148FFF753FD134956
:400E40000F48FFF75DFD1249124801F091FC114BB3F900301846FFF717FD012203210948FFF7DAFD03210748FFF758FD0548FFF729FD00BF1837BD4680BD00BF4C96081065
:400E8000847802080000284080011D4158AA0208990E0810D48D081080B500AF03210648FFF77CFD04210548FFF70AFE032000F0CDF900BF80BD00BF0000284000003840F8
:400EC00080B586B000AF2049204804F009FB78617B69002B01D000F059F81C4B7B6000233B720323FB6000233B743B1D1A460021174804F0F7FC78617B69002B01D000F0E8
:400F000045F814491148FFF7EDFC13490F48FFF7F7FC1249124801F02BFC114BB3F900301846FFF7B1FC012200210948FFF774FD00210748FFF7F2FC0548FFF7C3FC00BF2C
:400F40001837BD4680BD00BFB8960810A07802080000284080011D41549A0208650F0810BC8D081080B500AF00210648FFF716FD02210548FFF7A4FD042000F067F900BFD9
:400F800080BD00BF000028400000384080B400AF72B6FEE780B400AF00BFBD465DF8047B704700BF80B483B000AF0346FB80B7F90630002B0BDB0949B7F906305B09FA8887
:400FC00002F01F02012000FA02F241F8232000BF0C37BD465DF8047B704700BF00E100E080B483B000AF78607B681B6843F000427B681A6000BF0C37BD465DF8047B70478D
:4010000080B483B000AF786039603A687B685A6000BF0C37BD465DF8047B704780B483B000AF786039603A687B689A6000BF0C37BD465DF8047B704780B584B000AFF86054
:40104000B9607A60244B1B6893F833301A46BB689A4204D840F2E151204801F011FC1E4B1B68B3F85A301A46FB681A441A4B1B68B3F85C301946BB6803FB01F313441A460C
:401080007B68D360144B1B68B3F85A301A46FB681A44114B1B68B3F85C301946BB6803FB01F3134419460C4B1B68B3F85A301A46FB681A44084B1B68B3F85C301846BB68E4
:4010C00003FB00F313449B681B0C1B048B6000BF1037BD4680BD00BF5CD20208648D081080B582B000AF786039601B4B1B6893F833301A463B689A4204D840F2FA51174839
:4011000001F0BEFB144B1B68B3F85A301A467B681A44114B1B68B3F85C3019463B6803FB01F3134419460C4B1B68B3F85A301A467B681A44084B1B68B3F85C3018463B68CF
:4011400003FB00F313441B6843F000430B6000BF0837BD4680BD00BF5CD20208648D081080B582B000AF786039601A4B1B6893F833301A463B689A4204D840F2B3611648C9
:4011800001F07EFB134B1B68B3F85A301A467B681A44104B1B68B3F85C3019463B6803FB01F313441A46012313610A4B1B68B3F85A301A467B681A44064B1B68B3F85C30FD
:4011C00019463B6803FB01F313441B6900BF0837BD4680BD5CD20208648D081080B584B000AFF860B9607A60164B1B6893F833301A46BB689A4204D840F20371124801F040
:401200003FFB7B6823F00103002B04D040F204710D4801F035FB0B4B1B68B3F85A301A46FB681A44074B1B68B3F85C301946BB6803FB01F313441A467B68936100BF10371B
:40124000BD4680BD5CD20208648D081080B582B000AF78603B4B1B7883F00103DBB2002B6BD07B68072B65D801A252F823F000BF9112081099120810B3120810CD12081019
:40128000E712081001130810351308101B1308102C4B00221A7050E02B4A02212B48FFF7CBFE02212948FFF71BFF264B01221A7043E0274A02212548FFF7BEFE0221234808
:4012C000FFF70EFF1F4B01221A7036E0214A02211E48FFF7B1FE02211C48FFF701FF194B01221A7029E01C4A02211848FFF7A4FE02211648FFF7F4FE124B01221A701CE09E
:40130000164A02211148FFF797FE02210F48FFF7E7FE0C4B01221A700FE0114A02210B48FFF78AFE02210948FFF7DAFE054B01221A7002E0FFF72AFE00BF00BF0837BD46B0
:4013400080BD00BF504E0208D47802080000284004790208347902086479020894790208C479020880B586B000AF9549954804F0B7F878617B69002B01D0FFF707FE924981
:40138000924804F0ADF878617B69002B01D0FFF7FDFD8F498F4804F0A3F878617B69002B01D0FFF7F3FD8C498C4804F099F878617B69002B01D0FFF7E9FD8949894804F0DA
:4013C0008FF878617B69002B01D0FFF7DFFD8649864804F085F878617B69002B01D0FFF7D5FD8349834804F07BF878617B69002B01D0FFF7CBFD8049804804F071F8786110
:401400007B69002B01D0FFF7C1FD7D497D4804F067F878617B69002B01D0FFF7B7FD7A497A4804F05DF878617B69002B01D0FFF7ADFD7749774804F053F878617B69002B0A
:4014400001D0FFF7A3FD7449744804F049F878617B69002B01D0FFF799FD7149714804F03FF878617B69002B01D0FFF78FFD6E496E4804F035F878617B69002B01D0FFF7FC
:4014800085FD504B7B6000233B720323FB6000233B743B1D1A460221654804F023FA78617B69002B01D0FFF771FD62494548FFF7A7FD61494348FFF7B1FD60494348FFF786
:4014C0009FFD5D494148FFF7A9FD5D494148FFF797FD59493F48FFF7A1FD5A493F48FFF78FFD55493D48FFF799FD57493D48FFF787FD51493B48FFF791FD54493B48FFF75E
:401500007FFD4D493948FFF789FD51493948FFF777FD49493748FFF781FD4E493748FFF76FFD45493548FFF779FD4B493548FFF767FD41493348FFF771FD48493348FFF7CD
:401540005FFD3D493148FFF769FD45493148FFF757FD39492F48FFF761FD42492F48FFF74FFD35492D48FFF759FD3F492D48FFF747FD31492B48FFF751FD3C492B48FFF73D
:401580003FFD2D492948FFF749FD3949394801F0EFF8384BB3F900301846FFF703FD012202212348FFF71AFE02212148FFF798FD1F48FFF715FD00BF1837BD4680BD00BFEC
:4015C00054970810D478020824970810BC780208B49708100479020884970810EC7802081498081034790208E49708101C7902087498081064790208449808104C7902087B
:40160000D498081094790208A49808107C79020834990810C479020804990810AC79020894990810F479020864990810DC79020800002840208A020840026640288A0208BC
:401640001C7A0208247A020850AA020858AA02084C9A0208549A020854BA020856BA020858D202085AD20208489A02084A9A020879160810CC8D081080B500AF0221054848
:40168000FFF76EFD044B00221A700020FFF7DEFD00BF80BD00002840504E020880B483B000AF78607B68D3F8403318460C37BD465DF8047B704700BF80B483B000AF7860E6
:4016C0007B68D3F80833C3F3080318460C37BD465DF8047B704700BF80B582B000AF78607868FFF7DBFF034618460837BD4680BD80B582B000AF78607868FFF7DDFF0346A5
:4017000018460837BD4680BD80B582B000AF786039603968786801F04BFC034618460837BD4680BD80B582B000AF786000BF79680448FFF7E9FF0346002BF8D000BF083774
:40174000BD4680BD0000664080B500AF00BF0648FFF7CEFF0346002BF9D00348FFF7BCFF0346184680BD00BF0000664080B483B000AF0346FB80B7F90630002B0BDB09492A
:40178000B7F906305B09FA8802F01F02012000FA02F241F8232000BF0C37BD465DF8047B704700BF00E100E080B400AF084B1B681A68074B1B68D3F8843013441B6803F053
:4017C0007F431B0EDBB21846BD465DF8047B70475CD2020880B400AF084B1B681A68074B1B68D3F8843013441B6803F47F431B0ADBB21846BD465DF8047B70475CD2020855
:4018000080B582B000AF78600E4B1B6893F831301A467B689A4204D840F2C3110A4801F02FF8084B1B681A6A064B1B68B3F8B03019467B6803FB01F3134418460837BD46A3
:4018400080BD00BF5CD20208F48D081080B483B000AF78607B68DB6818460C37BD465DF8047B704780B483B000AF7860084B1B68D3F8B4207B6813441B6803F00043DB0F18
:40188000DBB218460C37BD465DF8047B704700BF5CD2020880B584B000AFF860B9607A607B68002B04D140F29331074800F0E8FF7B681A46B968F86800F09CF90346184623
:4018C0001037BD4680BD00BFF48D081080B584B000AF78601C4A7B6813601B4B1B68002B0BD0194B1B6802221A70174B1B68FF225A70154B1B6800225A80144B1B6893F8BD
:401900005030002B1CD0114B1B68B3F938303B810023FB6007F108030D49184600F028FFB7F908301846FFF721FF084B1B6893F85130002B04D002220649012000F0EAFD6D
:4019400000BF1037BD4680BD544E02085CD202088D4602089143020880B500AF0248FFF7B5FF00BF80BD00BF784E020880B485B000AF78607B682E4A93423FD02C4A9342A5
:401980000ED8402B40D0402B04D8002B1FD0102B37D042E0802B3AD0B3F5807F3AD03CE0244A934219D0234A934206D8B3F1204F10D0214A93421DD02FE0204A934213D0E2
:4019C0001F4A934213D01F4A93420AD025E00023FB6025E00023FB6022E04FF4A403FB601EE0194BFB601BE0184BFB6018E0184BFB6015E04FF4A003FB6011E00C4BFB605C
:401A00000EE0144BFB600BE0134BFB6008E0134BFB6005E0064BFB6002E0114BFB6000BFFB6818461437BD465DF8047B704700BF06005200010000F0090000A0040000F091
:401A4000050000F0030000F0010052000200520003005200010050000200500005005200FF00520080B582B000AF134B7B600120FFF7C6FE03461846FFF7F4FE034683F0C2
:401A80000103DBB2002B12D00C4B1B681846FFF76DFF78600A4B1B685B681A460123936000BF074B1B685B689B68002BF9D17B6818460837BD4680BD02005000584E0208F3
:401AC0005CD2020880B582B000AF786039603B681B0C1B04002B04D040F2BB21054800F0CFFE3B689AB27B689A6000BF0837BD4680BD00BF348E081080B582B000AF786096
:401B000039603B681B0C1B04002B04D040F2D521054800F0B5FE3B689AB27B685A6000BF0837BD4680BD00BF348E081080B483B000AF786039607B683A68DA6000BF0C3761
:401B4000BD465DF8047B704780B483B000AF78607B68DB6818460C37BD465DF8047B704780B483B000AF7860084B1B68D3F8B4207B6813441B6803F00043DB0FDBB2184669
:401B80000C37BD465DF8047B704700BF5CD2020880B483B000AF78607B681B6803F00043002B01DA002300E0034B18460C37BD465DF8047B704700BF01008A0080B584B09A
:401BC00000AF786039607868FFF7CAFF0346002B06D039687868FFF78FFF0023FB6001E0034BFB60FB6818461037BD4680BD00BF01008A0080B586B000AFF860B9607A60D8
:401C0000F868FFF7C5FF0346002B0AD17968F868FFF78CFFB968F868FFF754FF00237B6101E0034B7B617B6918461837BD4680BD01008A0080B584B000AF786039603B681D
:401C4000002B03D199210C4800F01AFE7868FFF787FF0346002B08D07868FFF775FF02463B681A600023FB6001E0044BFB60FB6818461037BD4680BD748E081001008A0002
:401C800080B582B000AF78600E4B1B6893F831301A467B689A4204D840F2C3110A4800F0EFFD084B1B681A6A064B1B68B3F8B03019467B6803FB01F3134418460837BD465B
:401CC00080BD00BF5CD20208B48E081080B483B000AF78607B68DB6818460C37BD465DF8047B704780B584B000AFF860B9607A607B68002B04D140F29331074800F0C0FDDB
:401D00007B681A46B968F868FFF774FF034618461037BD4680BD00BFB48E081080B483B000AF78607B681B6803F00043002B01DA002300E0034B18460C37BD465DF8047BD6
:401D4000704700BF01008A0080B586B000AFF860B9607A60144B7B617B68002B0BD1BB68002B08D1F868FFF78BFF02460F4B1A6000237B6113E07B68002B0ED0BB68002B89
:401D80000BD00B4ABB681360094A7B6853600849F86800F00FF8786101E0034B7B617B6918461837BD4680BD03018A007C4E0208804E020880B584B000AF78603960284BE1
:401DC000FB60284B1B6893F831301A467B689A4202D8234BFB603EE03B68002B39D03B681B6803F01F03002B30D17868FFF748FF02461D4B1A603B6858683B681B68DB08D5
:401E00001A46002106F0A7FA174B1B6800211846FFF7D4FE144B1B683A6800211846FFF761FF0346002B0ED10F4B1B6800211846FFF7C4FE0346002B02D10023FB600AE0EF
:401E40000A4BFB6007E0094BFB6004E0044BFB6001E0034BFB60FB6818461037BD4680BD03018A005CD202087C4E020801018A0080B588B000AF78600B46FB700023FB6167
:401E80002F4BBB612F4B1B681846FFF71FFF03467B617B691A687B689A4249D97B685B093B613B695B017A68D31A012202FA03F3FB60FB7883F00103DBB2002B02D000F02B
:401EC00090FDF8611F4B1B681846FFF727FF0346002B23D17B695A683B699B0013441A68FB681340002B11D07B695A683B699B0013447A6951683A6992000A441168FA6877
:401F0000D2430A401A600023BB6101E00E4BBB610C4B1B6800211846FFF750FEFB7883F00103DBB2002B05D0F86900F05EFD01E0064BBB61BB6918462037BD4680BD00BF4D
:401F4000030188007C4E02080201880004018A0080B586B000AF7860164B1B681846FFF7B5FE03463B613B691A687B689A421AD97B685B09FB60FB685B017A68D31A0122FA
:401F800002FA03F3BB603B695A68FB689B0013441A68BB681340002B02D0074B7B6104E0064B7B6101E0064B7B617B6918461837BD4680BD7C4E020801018800000188005F
:401FC00004018A0080B483B000AF0346FB80B7F90630002B0BDB0949B7F906305B09FA8802F01F02012000FA02F241F8232000BF0C37BD465DF8047B704700BF00E100E0B5
:4020000080B582B000AF78600E4B1B6893F831301A467B689A4204D840F2C3110A4800F02FFC084B1B681A6A064B1B68B3F8B03019467B6803FB01F3134418460837BD4698
:4020400080BD00BF5CD20208F48E081080B582B000AF78600C4B1B6893F832301A467B689A4204D840F2DF11084800F009FC064B1B681B6A1A467B6880335B01134418461B
:402080000837BD4680BD00BF5CD20208F48E081080B584B000AFF860B9607A607B681B0C1B04002B04D04FF4FF710C4800F0E8FBBB681B0C1B04002B04D040F2FF110748B2
:4020C00000F0DEFB7B681A04BB689BB21A43FB689A6000BF1037BD4680BD00BFF48E081080B483B000AF78607B68DB6818460C37BD465DF8047B704780B483B000AF78601C
:402100007B681B6818460C37BD465DF8047B704780B584B000AFF860B9607A607B681B0C1B04002B04D04FF426710D4800F0A8FBBB681B0C1B04002B04D040F29921084819
:4021400000F09EFB7B681A04BB689BB21A43FB681A60FB681B6800BF1037BD4680BD00BFF48E081080B582B000AF786039603B681B0C1B04002B04D040F2BB21054800F0EC
:402180007FFB3B689AB27B689A6000BF0837BD4680BD00BFF48E081080B483B000AF786039607B683A68DA6000BF0C37BD465DF8047B704780B483B000AF7860084B1B68A8
:4021C000D3F8B4207B6813441B6803F00043DB0FDBB218460C37BD465DF8047B704700BF5CD2020880B483B000AF78607B681B0C18460C37BD465DF8047B704780B483B022
:4022000000AF78607B689BB218460C37BD465DF8047B704780B582B000AF786039603B68002B04D140F2B631054800F029FB39687868FFF7FFFC034618460837BD4680BD7C
:40224000F48E081080B483B000AF78607B681B6803F00043002B01DA002300E0034B18460C37BD465DF8047B704700BF01008A0080B483B000AF7860064B1B68002B02D1AA
:40228000044A7B68136000BF0C37BD465DF8047B704700BF884E0208B0B590B002AF78607B68002B03D152212F4800F0E9FA7B689B69072B03D956212B4800F0E1FA7B68F1
:4022C000DB6A002B03D15821274800F0D9FA7B681B6B002B03D15921234800F0D1FA7B6807F11C0403F114050FCD0FC42B6823607B6807F108041D460FCD0FC42B6823600B
:402300001A4B1B68B3F936309AB2FB699BB213449BB21BB23B863B6A7B63B86A7B68D96A7B689A6AFC6A07F130030093234600F01FF87869BA6900230093134600220021D8
:4023400000F016F87B681A6B07F130031146184600F00EFAB7F930301846FFF733FE00BF3837BD46B0BD00BF348F08105CD2020880B586B000AFF860B9607A603B60254BAA
:402380001B68002B03D1B521234800F079FA214B1A68FB682C2101FB03F313447B613B68DAB27B691A603B681B0ADAB27B695A603B681A0C7B699A607B691B681846FFF753
:4023C0001FFE02467B691A617B695B681846FFF73DFE02467B695A617B6958697B6999687B699B681A46FFF753FE7B697A68DA617B69BA681A627B6900229A613B6A002B90
:4024000004D03B6AB3F900207B699A8100BF1837BD4680BD884E0208348F081080B58AB000AFF860B9607A603B607B68002B03D1FD21344800F024FA334B1B68002B03D1C1
:40244000FE21304800F01CFA2F4B1A68FB682C2101FB03F313443B622B4B1A68BB682C2101FB03F31344FB61FB695B68012202FA03F3BB61BB691B04BB613B6A5B680122DE
:4024800002FA03F37B613B6A1B69002B32D0FB699B69002B2BD13B6A1B691846FFF7D2FE0346002B20D17B681B689AB27B681A607B681A68BB691A437B681A603B6A1B693C
:4024C0007A6811461846FFF767FEFB6901229A61FB693A685A623B6A1B6979691846FFF741FE00237B6207E0084B7B6204E0074B7B6201E0064B7B627B6A18462837BD462A
:4025000080BD00BF348F0810884E020807028A0004028A0080B586B000AFF860B9607A60174B1B68002B04D14FF4AF71154800F0A7F9134B1A68FB682C2101FB03F313444E
:402540003B613B691B6A002B04D14FF4B1710D4800F096F93B69DA697B689A4209D93B691A6A7B689B001344BA681A6000237B6101E0054B7B617B6918461837BD4680BD5F
:40258000884E0208348F08100A028A0080B584B000AF78600B4B1B68002B04D140F2B111094800F06DF9074B1A687B682C2101FB03F31344FB60F86800F008F800BF103768
:4025C000BD4680BD884E0208348F081090B589B000AF78600023FB600023FB617B68002B04D140F2D1114C4800F04AF97B681B69002B04D14FF4E971474800F041F97B6880
:402600005B69002B04D140F2D311434800F038F97B681B6A002B04D14FF4EA713E4800F02FF97B685B691846FFF75AFDB861B869FFF7D8FD0346002B3ED07B685C69B869CE
:40264000FFF7D0FD03461A4600212046FFF760FD7B681B691846FFF7ADFD0346002B2BD07B681B6907F10C0211461846FFF7D2FD0346002B1AD1FB681B681B0CFB61FB682E
:402680001B68DBB27B617B68DA697B699A420DD97B681A6A7B699B0013441B683B613B69002B03D0FA683B69104698477B681B69F9691846FFF782FAB869FFF79FFD034694
:4026C000002B1FD07B685C69B869FFF797FD0346002219462046FFF71BFD7B685B6A002B06D07B685B6A98477B6800225A6206E07B689B6A002B02D07B689B6A98477B68C9
:4027000000229A617B685B691846FFF7F5FC00BF2437BD4690BD00BF348F081080B483B000AF03463960FB80B7F90630002B0ADB0D49B7F906303A68D2B25201D2B20B449B
:4027400083F800230AE00949FB8803F00F03043B3A68D2B25201D2B20B441A7600BF0C37BD465DF8047B704700E100E000ED00E080B584B000AF786039600023FB607B68D4
:40278000002B1DD07B685B68072B03D93221104800F076F87B68B3F900207B685B6819461046FFF7BBFF0B4B9B680B4A934209D17B68B3F900303968184600F011F801E095
:4027C000064BFB60FB6818461037BD4680BD00BF748F081000ED00E0004002080100560080B584B000AF03463960FB80134B9B68134A934216D13B68002B04D140F2371191
:40280000104800F03DF8B7F9063010330C4A52F82330FB60B7F90630103309493A6841F8232006E0B7F906301033074A52F82330FB60FB6818461037BD4680BD00ED00E09E
:4028400000400208748F08100000081080B582B000AF0346FB80FB88054A127802FB03F3184600F0B5F800BF0837BD4680BD00BF1443020880B483B000AF786001BEFEE7C7
:4028800080B582B000AF7860396018227968044805F0CCFD034A3B6813600020FFF7EAFF184C0208304C020880B584B000AF78607B681B68414A13607B685B683F4A5360E0
:4028C0007B689B683D4A93607B68DB683B4AD3607B681B69394A13617B685B69374A53617B689B69354A93617B68DB69334AD361334B9B6A314A1362314BDB6A2F4A5362CC
:402900002F4B5B6A2D4A93622D4B5B6B2B4AD3622B4B9B6B294A1363F1EE103AFB60FB6803F09003002B43D07B681B6A234A53637B685B6A214A93637B689B6A1F4AD363D9
:402940007B68DB6A1D4A13647B681B6B1B4A53647B685B6B194A93647B689B6B174AD3647B68DB6B154A13657B681B6C134A53657B685B6C114A93657B689B6C0F4AD36551
:402980007B68DB6C0D4A13667B681B6D0B4A53667B685B6D094A93667B689B6D074AD3667B68DB6D054A13677B681B6E034A536700F008F800BF1037BD4680BD344C020811
:4029C00000ED00E080B400AFFEE700BF000000000230800803D001300238FCD100BF00BF7047EFF3108072B6704780F31088704780B400AF4FF0B0535B78DBB2002B04D0F2
:402A00004FF0B0535B78DBB200E021231846BD465DF8047B704700BF80B483B000AF7860044A7B68136000BF0C37BD465DF8047B704700BF5CD2020880B586B000AF78601A
:402A400039607B68002B03D13A216A48FFF718FF3B68002B03D13B216648FFF711FF7B68002B02D03B68002B02D1634B7B6148E13B681A68614B1340002B03D04A215D48A9
:402A8000FFF7FEFE3B685A685D4B1340002B03D04B215848FFF7F4FE3B689B6803F0FC23002B03D04C215348FFF7EAFE3B68DB6803F0FC23002B03D04D214E48FFF7E0FE68
:402AC0003B681B7D032B03D94E214A48FFF7D8FE3B689B69B3F5803F03D34F214548FFF7CFFE3B68DB6D072B03D950214148FFF7C7FE3B681B6EB3F5803F03D351213D4812
:402B0000FFF7BEFE3B685B6EB3F5803F03D352213848FFF7B5FE3B685B6843F000427B685A603B689A687B681A613B68DA687B685A613B681A697B689A613B681B7D9A07C0
:402B40007B68DA613B689A697B681A623B681B6803F46063B3F5606F0CBF01230023BB743B685B6803F00403002B14BF012300237B740023FB7464E0FB7C3A6806339B0043
:402B800013445A681F4B1340002B03D063211948FFF776FEFA7CFB7C396806339B000B4459687B68203243F822104FF48053FB60FB7C3A6806339B0013445B6803F001234F
:402BC000002B0CBF01230023FB72FB7A002B1DD0BB7C002B1AD07B7C002B17D0FA7CFB68D90F0B445B105B4219B2074B23F8121011E000BF28910810010006000811DF0057
:402C000001FE302088CA887E60D20208FB7C3F4A002122F81310FB7CFA6842F2107101FB02F23968496F11443A68526F520091FBF2F212B21146364A42F82310FB7C01334F
:402C4000FB74FB7C0F2B97D93B68DA6D7B68C3F818223B68DA6D7B68C3F810223B681A6E7B68C3F828223B681A6E7B68C3F820223B685A6E7B68C3F838223B685A6E7B6879
:402C8000C3F830223B6893F87030002B23D03B689B6EB3F1804F03D382211E48FFF7F0FD3B68DB6E23F44F0323F0FF03002B03D083211848FFF7E4FD7B686FF04042C3F878
:402CC00004233B689A6E7B68C3F800233B68DA6E7B68C3F844237B68D3F8003F3F2B04D07B68D3F8003F002B03D17B680B22C3F8002F3B681B6843F400127B681A60002351
:402D00007B617B6918461837BD4680BD60D2020880D202082891081080B584B000AF78600B46FB707B68002B03D1B5212848FFF7A7FD7B68002B02D1264BFB6043E07B685C
:402D400000221A607B6800225A607B684FF003121A617B684FF003125A617B6800229A617B680022DA617B6800221A620023FB7208E0FA7A7B682032002143F82210FB7A6F
:402D80000133FB72FB7A0F2BF3D97B680022C3F818227B680022C3F828227B680022C3F83822FB78002B0CD07B686FF04042C3F804237B680022C3F840237B680022C3F8D6
:402DC00044230023FB60FB6818461037BD4680BD289108100100060080B582B000AF78607B681B68002B0EDB00BF7B68D3F8A032002BFADB7B681B6843F000427B681A60EF
:402E00000220FFF723FD00BF0837BD4680BD00BF80B483B000AF78607B68D3F8403318460C37BD465DF8047B704700BF80B483B000AF78607B68D3F80833C3F3080318466A
:402E40000C37BD465DF8047B704700BF80B483B000AF786039607B683A68C3F8402200BF0C37BD465DF8047B704700BF80B483B000AF78607B68D3F80832C3F30803184655
:402E80000C37BD465DF8047B704700BF80B483B000AF78607B681B6803F40063002B01D0802300E0402318460C37BD465DF8047B704700BF80B483B000AF78607B68D3F868
:402EC000003303F00F03072B94BF01230023DBB218460C37BD465DF8047B704780B483B000AF78607B68D3F8003203F00F03072B94BF01230023DBB218460C37BD465DF8ED
:402F0000047B704790B589B000AFF860B9607A60F868FFF7CFFF0346002B15D0BB68BB610023FB610BE0BA69FB69D418F868FFF76FFF0346DBB22370FB690133FB61FA69C6
:402F40007B689A42EFD315E0BB687B610023FB610CE0FB695B007A69D418F868FFF758FF03469BB22380FB690133FB61FA697B689A42EED300BF2437BD4690BD80B586B051
:402F800000AFF860B9607A60F868FFF74FFF78617A697B689A4201D97B687B617A69B968F868FFF7AFFF7B6918461837BD4680BD90B585B000AF786039600023FB6078688E
:402FC000FFF764FF04467868FFF750FF03469C4205D039687868FFF739FF0123FB60FB6818461437BD4690BD80B588B000AFF860B9607A60F868FFF771FF0346002B14D0FE
:40300000BB68BB610023FB610AE0BA69FB6913441B781946F868FFF719FFFB690133FB61FA697B689A42F0D314E0BB687B610023FB610BE0FB695B007A6913441B88194679
:40304000F868FFF703FFFB690133FB61FA697B689A42EFD300BF2037BD4680BD90B587B000AFF860B9607A60F868FFF70FFF0446F868FFF7FBFE0346E31A7B617A697B686F
:403080009A4201D97B687B617A69B968F868FFF7ABFF7B6918461C37BD4690BD80B584B000AFF860B9607A6006E0B968F868FFF7CDFE7B68013B7B607B68002BF5D100BF9A
:4030C0001037BD4680BD00BF90B587B000AFF860B9607A60F868FFF7D9FE0446F868FFF7C5FE0346E31A7B617A697B689A4201D97B687B617A69B968F868FFF7CFFF7B691B
:4031000018461C37BD4690BD80B483B000AF78607B68D3F8403318460C37BD465DF8047B704700BF80B582B000AF78603960786800F01AFA02463B689A4204D84FF42071AF
:403140000848FFF79DFB7B68D3F8043323F0FF023B68DBB21A437B68C3F8042300BF0837BD4680BD6491081080B483B000AF78607B68D3F80833C3F3080318460C37BD469F
:403180005DF8047B704700BF80B483B000AF78607B68D3F8043343F480327B68C3F804237B68D3F8043323F480327B68C3F804237B68D3F8043300BF0C37BD465DF8047B13
:4031C000704700BF80B483B000AF786039607B683A68C3F8402200BF0C37BD465DF8047B704700BF80B483B000AF78607B68D3F80832C3F3080318460C37BD465DF8047BD2
:40320000704700BF80B483B000AF78607B68D3F8083203F40043DB0B18460C37BD465DF8047B704780B483B000AF78607B68D3F8043243F480327B68C3F804227B68D3F8C6
:40324000043223F480327B68C3F804227B68D3F8043200BF0C37BD465DF8047B704700BF80B483B000AF78607B68D3F8003E18460C37BD465DF8047B704700BF80B582B029
:4032800000AF786039603B6823F4366323F00D03002B04D040F29A310548FFF7F1FA7B683A68C3F8C82F00BF0837BD4680BD00BF6491081080B483B000AF78607B68D3F871
:4032C000CC3F18460C37BD465DF8047B704700BF80B582B000AF786039603B6823F4366323F00D03002B04D040F2E5310648FFF7C7FA7B683A68C3F8C02F7B68D3F8C03FB0
:4033000000BF0837BD4680BD6491081080B582B000AF786039603B6823F4366323F00D03002B04D04FF47F710548FFF7A9FA7B683A68C3F8C42F00BF0837BD4680BD00BFFD
:403340006491081080B582B000AF786039603B6823F4EE6323F00303002B04D040F22A410548FFF78DFA7B683A68C3F8882F00BF0837BD4680BD00BF6491081080B483B0C7
:4033800000AF78607B68D3F88C3F18460C37BD465DF8047B704700BF80B582B000AF786039603B6823F4EE6323F00303002B04D040F277410648FFF763FA7B683A68C3F8AA
:4033C000802F7B68D3F8803F00BF0837BD4680BD6491081080B483B000AF78607B68D3F8002F40F21733134018460C37BD465DF8047B704780B582B000AF786039603B6873
:4034000023F4457323F00303002B04D040F2BC410548FFF735FA7B683A68C3F8082F00BF0837BD4680BD00BF6491081080B483B000AF78607B68D3F80C3F18460C37BD46F8
:403440005DF8047B704700BF80B582B000AF786039603B6823F4457323F00303002B04D04FF4A0610648FFF70BFA7B683A68C3F8002F7B68D3F8003F00BF0837BD4680BDCA
:403480006491081080B582B000AF786039603B6823F41F6323F00F03002B04D040F246510548FFF7EDF97B683A68C3F8482F00BF0837BD4680BD00BF6491081080B483B0FE
:4034C00000AF78607B68D3F84C3F18460C37BD465DF8047B704700BF80B582B000AF786039603B6823F41F6323F00F03002B04D040F28B510648FFF7C3F97B683A68C3F8E9
:40350000402F7B68D3F8403F00BF0837BD4680BD6491081080B483B000AF78607B68D3F88C3E18460C37BD465DF8047B704700BF80B582B000AF786039603B6823F001030F
:40354000002B04D040F213610648FFF799F97B683A68C3F8802E7B68D3F8803E00BF0837BD4680BD6491081080B483B000AF78607B681B6803F40063002B01D0802300E0FE
:40358000402318460C37BD465DF8047B704700BF80B483B000AF78607B681B6823F000427B681A607B6800229A667B680022DA667B681B6843F000427B681A607B681B68CC
:4035C00000BF0C37BD465DF8047B704780B483B000AF78607B68D3F80433DBB218460C37BD465DF8047B704780B582B000AF786039603B68062B02D93B68102B04D940F289
:4036000083510948FFF73CF97B681B6E23F0F0023B68013B1B01DBB21A437B681A6600BF0837BD4680BD00BFA891081080B582B000AF786039603B68042B02D93B68102B21
:4036400004D94FF4B4610948FFF71AF97B681B6E23F00F023B68013B03F00F031A437B681A6600BF0837BD4680BD00BFA891081080B586B000AFF860B9607A60BB681B781E
:40368000012B05D0BB681B7A002B01D0012300E00023FB75FB7D03F00103FB75FB68002B05D0BB68002B02D07B68002B01D17C4BF1E0BB681B78012B0BD0BB681B78022B44
:4036C00007D0BB681B78032B03D04F217548FFF7D7F8BB685B78002B02D0BB685B7900E00023002B03D050216E48FFF7C9F8BB68DB785BB2002B03DA51216A48FFF7C0F824
:40370000BB681B7903F00103002B03D052216548FFF7B6F8BB681B69102B03D953216148FFF7AEF8BB68DB68102B03D954215D48FFF7A6F8BB685B79002B02D04FF480328E
:4037400000E00022BB68DB79002B02D04FF4807300E00023134343F40062FB681A60BB689B7983F00103DBB2002B02D04FF4006200E00022BB681B69013B03F00F031A43AA
:40378000BB68DB68013B1B01DBB21A43BB681B789B071A43FB681A66FB7D002B02D040F2073201E040F20712FB68C3F80023FB7D002B01D03C4A00E03C4AFB681A67BB6815
:4037C0005B78002B01D07F2200E00022FB68C3F80423BB68DB785B00DAB2BB681B791B0403F47F031A43FB68C3F81023FB68304AC3F80022BB689B78002B01D0402200E08A
:403800000122FB68C3F80422FB680022C3F8C82EFB680022C3F8882EFB680022C3F8C82FFB680022C3F8882FFB680022C3F8082FBB681B78022B02D040F2D11200E0002284
:40384000FB68C3F8482FBB685A787B681A70BB689A787B685A707B684FF080525A607B6800229A607B6800229A617B6800221A627B6800221A647B680022DA637B68002277
:403880001A637B680022DA627B6800225A647B6800229A64002318461837BD4680BD00BF0120AA00E891081003002A0013102A000701010080B58CB000AFF860B9607A606B
:4038C0007B68002B04D140F212218948FEF7D8FFBB68002B03D0BB68864A934204D940F213218348FEF7CCFF0023FB62FB681B6E03F040439B0F012B10D17968F86800F062
:4039000011F9F862FB68D3F8003323F40072FB68C3F80023FB68784A1A67E3E0012387F82B300823FB610823BB610023FB75BB68002B03D0BB686F4A934203D9012387F8DF
:403940002B3042E0BB686D4A934213D87B686C4A93423AD97B686B4A934236D841F288337B6241F288333B620023FB75002387F82B302AE0BB68644A934213D87B68634A23
:40398000934222D97B68624A93421ED84FF4C8637B624FF461733B620023FB75002387F82B3012E07B685B4A93420ED97B685A4A93420AD84FF41B737B624FF4BE733B621B
:4039C0000123FB75002387F82B3097F82B3083F00103DBB2002B00F08580504A7B68B2FBF3F33B617A6A3B69B2FBF3F3FB613B69FA6902FB03F27B6A9A4202D2FB690133DF
:403A0000FB61FB69102B01D91023FB61FB690F2B94BF01230023BB753A6A3B69B2FBF3F3BB613B69BA6902FB03F23B6A9A4202D2BB690133BB61BB69102B01D91023BB61B9
:403A4000FA69BB6913447A68B2FBF3F3FB621EE0BB7D002B08D0FB690F2B11D8FB690133FB610023BB750BE0BB690F2B08D8BB690133BB61FB690F2B94BF01230023BB758A
:403A8000FA69BB6913447A68B2FBF3F3FB62FA6ABB689A4204D9FA69BB6913441F2BD7D9FB7D002B0BD0FB68D3F8003343F40072FB68C3F80023FB68194A1A670AE0FB68E1
:403AC000D3F8003323F40072FB68C3F80023FB68094A1A67F969F868FFF786FDB969F868FFF7A4FDFB6A18463037BD4680BD00BFE891081040420F0013102A00A0860100B4
:403B0000AFA6170000D43000801A0600DF527700809698007F81DA0040AD890100CA9A3B03002A0080B584B000AF786039603B68002B04D140F2C3212448FEF7A1FE00239D
:403B4000FB607B681B6E03F040439B0F012B23D13B681F4A934206D93B681E4A934202D81D4BFB602CE03B681C4A934206D93B681B4A934202D81B4BFB6021E03B681A4AB8
:403B8000934206D93B68194A934202D8184BFB6016E00023FB6013E03B68002B10D07B681B6E03F0F0031A097B681B6E03F00F0313440233BB603A68BB68B2FBF3F3FB6089
:403BC000FB6818461037BD4680BD00BFE8910810DF52770020AEEA00801A0600AFA617000050C300A0860100FFB2F10040084E0540420F0080B582B000AF786039603B688F
:403C00005B6803F48013002B04D03968786800F047FB03E03968786800F004F800BF0837BD4680BD80B584B000AF786039607868FFF770FC034603F00103002B07D03B6847
:403C40004FF480525A6001217868FFF771FC7868FFF734FCF860FA6840F201131340002B16D03B681A6AFB6803F48073002B02D04FF4807300E080231A433B681A620021DF
:403C80007868FFF7FBFAFB6843F01003FB6016E0FB6803F01003002B11D07868FFF764FA0346002B0BD03B68DB6B002B07D001217868FFF72BFB01217868FFF7DFFA78688D
:403CC000FFF7F8FA034603F00103002B07D03968786800F019F901217868FFF7F9FAFB6803F01003002B0BD03968786800F044FA10217868FFF7F0FB7868FFF7DFFBF86014
:403D0000FB6803F0C003002B0BD03968786800F01DF801217868FFF70BFCC0217868FFF7DBFB7868FFF72AFB034603F04103002B07D03968786800F069F901217868FFF70A
:403D40002BFB00BF1037BD4680BD00BF80B588B000AF786039600023FB773B689B6C002B46D00023BB617B681B6803F48033002B0BD07868FFF7A2FB034603F04003002B99
:403D800001D0022300E00023BB617B681B6E03F40063002B0DD17868FFF790FB034603F08003002B01D0012300E00023BA691343BB61BB69002B1BD03B689B6CB869984763
:403DC0000346FB7701217868FFF782FAFB7F002B09D110217868FFF77FFB40F2D1117868FFF750FB04E040F2C1117868FFF74AFB7868FFF717FAFB7F002B01D1012200E0FB
:403E000002227B68DA66FB7F002B78D17B685B6E03F01003002B14BF01230023FB743B685B6C002B09D03B685B6CFA7C002A01D0012200E0022210469847FB7C002B16D0BA
:403E40003B6841F202025A603B681B6A43F001023B681A623B685A6B3B681A633B68002283F8242001217868FFF76CFA47E000237B613B6841F201025A603B681B6A43F0B3
:403E800010023B681A6201217868FFF7F7F93B681B78002B2FD03B68DB6B002B2BD08023FB607B681B6E43F400527B681A663B68DA6BFB689A4210D93B68DA6BFB68D31ADC
:403EC0007B617A69FB689A4203D9FB685B08013B01E07B69013B7B610DE03B68DB6B013B7B617B681B6E43F400427B681A6600217868FFF7C3F979697868FFF713F900BF9D
:403F00002037BD4680BD00BF90B587B000AF786039603B68DB6B002B6DD03B681B78002B50D080233B617868FFF750FB03460133FB603B689B6BFA6819467868FFF71EF82F
:403F4000F8603B681A6CFB681A443B681A643B68DA6BFB68D21A3B68DA633B689A6BFB681A443B689A633B68DA6B3B699A4210D93B68DA6B3B69D31A7B617A693B699A42B5
:403F800003D93B695B08013B01E07B69013B7B6113E07B681B6E43F400427B681A663B68DB6B002B03D03B68DB6B013B00E000237B6100217868FFF761F979697868FFF7D6
:403FC000B1F81FE07B680122DA663B689A6B3B681B6CD4187868FFF797F80346DBB223703B681B6C5A1C3B681A643B68DB6B5A1E3B68DA6306E07B680222DA660021786817
:40400000FFF73CF900BF1C37BD4690BD80B584B000AF786039603B6893F82430DBB283F00103DBB2002B19D03B68DB6A002B15D13B685B6C002B03D03B685B6C0820984771
:404040003B68DB6A002B0CBF01230023DAB23B6883F8242001217868FFF774F93B6893F82430DBB2002B1DD03B685B78002B04D07868FFF779FA034600E00123FB60FA68D9
:40408000FF217868FFF720F8F8603B681A6BFB681A443B681A633B681B6A43F008023B681A6265E03B68DB6A012B23D93B685B78002B03D03B68DB6A013B00E00123FB60C1
:4040C0003B689B6AFA6819467868FEF7C7FFF8603B681A6BFB681A443B681A633B68DA6AFB68D21A3B68DA623B689A6AFB681A443B689A627868FFF775F80346802B37D001
:404100003B68DB6A012B33D1FEF76BFCB8603B689B6A1B7819467868FFF754F840217868FFF73AF9B868FEF760FC3B681B6B5A1C3B681A633B680022DA623B689B6A5A1C7E
:404140003B689A6240217868FFF7FCF83B685B78002B0DD03B681B6A43F002023B681A623B685B6C002B03D03B685B6C0420984700BF1037BD4680BD90B585B000AF78605D
:4041800039603B685B6841F20102934233D17868FEF7EAFF0346002B10D03B681B6A43F040023B681A623B681B78002B03D07868FEF7EAFF02E07868FEF7A6FF2023FB6037
:4041C0003B681B6A43F020023B681A623B681B6A23F010023B681A627B681B6E23F420427B681A6600217868FFF748F801217868FFF76EF834E07868FEF7F4FF04467868D4
:40420000FFF700F803462344BB603B681A6BBB68D21A3B685A633B681B6A03F00803002B0CD13B68DA6ABB681A443B68DA623B689A6ABB685B421A443B689A621023FB60C7
:404240003B681B6A43F004023B681A623B681B6A23F001023B681A6200217868FFF772F87868FFF72BF9024640F201131340002B06D07868FFF78CF9FB6843F04003FB6095
:404280003B684FF080525A603B685B6C002B03D03B685B6CF868984700BF1437BD4690BD80B584B000AF786039607868FEF7D8FFF860FB6803F00203002B10D07B689B6E46
:4042C000002B08D07B6800229A663B689B6843F080723B689A603B684FF4C0125A60FB6803F00103002B07D03968786800F034F8FB6823F00403FB60FB6803F00803002B7F
:4043000007D03968786800F07FF801217868FEF7DFFFFB6803F00403002B07D03968786800F0FCF801217868FFF736F83B685B68B3F5C01F03D13968786800F0A7F93B688A
:404340005B68B3F5B01F03D13968786800F076F900BF1037BD4680BD80B584B000AF786039607868FFF762F8F860FB6803F00203002B25D002217868FFF766F87868FFF750
:4043800029F8034603F00403002B02D04FF4001301E04FF480133A6892681A433B689A603B685B68B3F5B81F0AD03B681B7B002B02D04FF4C01201E04FF4B0123B685A60AC
:4043C000FB6803F48073002B05D03B689B6843F400023B689A60FB6803F00103002B05D03B689B6843F480023B689A60FA6840F211131340002B03D03B684FF4C0125A6023
:4044000000BF1037BD4680BD90B585B000AF786039603B685B68B3F5881F03D0B3F5901F2BD077E03B681C697868FEF76DFE0346DBB223703B689B695A1C3B689A613B683C
:404440005B695A1E3B685A613B685B69002B08D03B681B695A1C3B681A617B6804229A6658E03B681B7B002B02D04FF4C01201E04FF4B0123B685A604CE03B6819693B68BA
:404480005B691A467868FEF779FDF8603B689A69FB681A443B689A613B685A69FB68D21A3B685A613B681A69FB681A443B681A613B685B69012B1BD87B681B6E23F480721D
:4044C0007B681A663B685B69012B08D100217868FEF728FE3B684FF488125A6019E000217868FEF7CBFE3B684FF4B0125A6010E04023BB603B685A69BB689A4203D83B682C
:404500005B69023B01E0BB68013B19467868FEF709FE00BF00BF1437BD4690BD80B584B000AF786039603B685B68B3F5A81F04D13B684FF4C0125A607BE03B685B68B3F5D8
:40454000A01F76D13B685B69012B23D93B685B78002B03D03B685B69013B00E00123FB603B681B69FA6819467868FEF777FDF8603B689A69FB681A443B689A613B685A693C
:40458000FB68D21A3B685A613B681A69FB681A443B681A617868FEF725FE0346802B1CD03B685B69012B18D1FEF71BFAB8603B681B691B7819467868FEF704FE40217868A2
:4045C000FEF7EAFEB868FEF710FA3B689B695A1C3B689A613B6800225A613B685B69002B27D13B681B7B002B08D040217868FEF7A9FE3B684FF4A8125A6007E0002178689F
:40460000FEF7A0FE3B684FF4B0125A603B685B78002B0ED03B689B6843F400323B689A603B685B6C002B04D03B685B6C4FF48030984700BF1037BD4680BD00BF80B582B049
:4046400000AF7860396000217868FEF717FE00217868FEF777FE7B689B6E002B05D040F217117868FEF7C6FE0BE040F213117868FEF7C0FE7B6818229A663B684FF4B81224
:404680005A6000BF0837BD4680BD00BFB0B586B000AF786039607868FEF7C8FE38617B681B6E23F480727B681A6600217868FEF7E5FD00217868FEF745FE00217868FEF775
:4046C00099FE40F217117868FEF7BEFE3B689B6823F480323B689A603B685B7B002B04D03B689A693B68DA610DE03B689C697868FEF778FD05467868FEF784FD03462B44F8
:40470000E21A3B68DA613A6940F201131340002B25D00123FB757B681B6E03F040439B0F032B11D13B6903F00403002B04D13B6903F48073002B01D0012300E00023FB7554
:40474000FB7D03F00103FB75FB7D002B02D07868FEF71EFF3B684FF080525A6014E03B681B78002B06D07868FEF70EFD01217868FEF7AEFD3B681B7B002B01D0144A01E064
:404780004FF080523B685A603B685B6C002B1AD03B685B7B002B02D04FF4802301E04FF40033FB603B689B6803F0F873002B02D04FF4002300E00023FA681343FB603B68DE
:4047C0005B6CF868984700BF1837BD46B0BD00BF0000101080B483B000AF78607B68D3F8403318460C37BD465DF8047B704700BF80B582B000AF78603960786800F0F6F814
:4048000002463B689A4204D84FF420710848FEF737F87B68D3F8043323F0FF023B68DBB21A437B68C3F8042300BF0837BD4680BD2892081080B483B000AF78607B68D3F896
:404840000833C3F3080318460C37BD465DF8047B704700BF80B483B000AF786039607B683A68C3F8402200BF0C37BD465DF8047B704700BF80B483B000AF78607B68D3F83A
:404880000832C3F3080318460C37BD465DF8047B704700BF80B483B000AF78607B68D3F8003E18460C37BD465DF8047B704700BF80B582B000AF786039603B6823F436636D
:4048C00023F00D03002B04D040F29A310548FDF7D7FF7B683A68C3F8C82F00BF0837BD4680BD00BF2892081080B483B000AF78607B68D3F8CC3F18460C37BD465DF8047B5D
:40490000704700BF80B582B000AF786039603B6823F4366323F00D03002B04D040F2E5310648FDF7ADFF7B683A68C3F8C02F7B68D3F8C03F00BF0837BD4680BD28920810E3
:4049400080B582B000AF786039603B6823F4EE6323F00303002B04D040F22A410548FDF78FFF7B683A68C3F8882F00BF0837BD4680BD00BF2892081080B483B000AF78606D
:404980007B68D3F8883F18460C37BD465DF8047B704700BF80B483B000AF78607B68D3F88C3F18460C37BD465DF8047B704700BF80B582B000AF786039603B6823F4EE63AD
:4049C00023F00303002B04D040F277410648FDF757FF7B683A68C3F8802F7B68D3F8803F00BF0837BD4680BD2892081080B483B000AF78607B681B6803F40063002B01D007
:404A0000802300E0402318460C37BD465DF8047B704700BF80B483B000AF78607B68D3F8003303F00F03072B94BF01230023DBB218460C37BD465DF8047B704780B483B0DF
:404A400000AF78607B68D3F8003203F00F03072B94BF01230023DBB218460C37BD465DF8047B704780B584B000AFF860B9607A60BB68002B02D07B68002B04D14FF499619F
:404A80000648FDF7FDFE7A68B968F868FEF776FA034618461037BD4680BD00BF6C92081080B584B000AFF860B9607A60BB68002B02D07B68002B04D140F273510648FDF750
:404AC000DFFE7A68B968F868FEF7C8FA034618461037BD4680BD00BF6C92081090B587B000AFF860B9607A60FB68002B02D0BB68002B01D18A4B58E2BB681B78002B0BD0FB
:404B0000BB681B78012B07D0BB681B78022B03D03F218448FDF7B4FEBB685B7B022B1BD0BB685B7B032B17D0BB685B7B042B13D0BB685B7B052B0FD0BB685B7B062B0BD0FD
:404B4000BB685B7B072B07D0BB685B7B082B03D040217448FDF794FEBB689B7B002B0BD0BB689B7B022B07D0BB689B7B032B03D041216C48FDF784FEBB6893F82130002B25
:404B800008D0BB6893F82130012B03D042216548FDF776FEBB6893F82830002B08D0BB6893F82830012B03D043215E48FDF768FEBB681B78002B03D0BB681B78012B0ED1C0
:404BC000BB685B68072B03D9BB685B68102B01D9012300E0002303F00103DBB227E0BB689B7F002B22D0BB685B68012B19D0BB685B68022B15D0BB685B68032B11D0BB68AF
:404C00005B68042B0DD0BB685B68052B09D0BB685B68062B05D0BB685B68072B01D0012300E0002303F00103DBB200E00023002B03D045213B48FDF723FEBB689B68042BE2
:404C400003D9BB689B68092B03D946213548FDF717FEBB685B69FF2B03D947213148FDF70FFEBB689B69FF2B03D948212D48FDF707FEBB689B7C002B12D0BB681B78002B3A
:404C800007D1BB689B68092B03D1BB689B7B002B01D0012300E0002303F00103DBB200E00023002B03D04A211E48FDF7E9FDBB685B6B23F4366323F00D03002B03D04C213B
:404CC0001848FDF7DDFDBB68DB6B23F4EE6323F00303002B03D04D211248FDF7D1FDBB681B78022B09D1BB689B7F83F00103DBB2002B02D000237B6103E0BB685B68013B15
:404D00007B61BB681B7F002B02D04FF4803200E00022BB689B68082B06D84FF4006304E00160AA00AC92081000231A437B6903F00F03134343F00072FB681A60BB681C6BD9
:404D4000F868FFF753FE03469C4203D362219948FDF796FDBB689C6BF868FFF747FE03469C4203D363219348FDF78AFDBB685C6AF868FFF73BFE03469C4203D364218D4839
:404D8000FDF77EFDBB681B781B0603F04072FB681A64BB685B7F002B01D0402200E00022BB689B7C002B02D04FF4806300E000231A43BB681B7C002B02D04FF4807300E040
:404DC00000231A43BB685B7C002B02D04FF4007300E000231A43BB68DB6A013B1B0403F470231A43BB685B7B013B03F007031A43BB689B7B1B0103F030031A43FB689A64B4
:404E0000BB681B7B002B02D04FF4807200E00022BB68DB7B002B03D1BB681B78022B01D1012300E00023002B02D04FF4007300E000231A43BB689B68013B03F00F031A435A
:404E4000FB68C3F80023BB685B69DAB2BB689B691B0403F47F031A43FB68C3F81023BB68DA6AFB68D3F8003303F00F0303339A4203D3BB68DB6A102B03D97A214D48FDF7B9
:404E8000FFFCBB68DB7F002B05D0BB681B78012B01D1012300E00023002B02D04FF4807200E00022BB685B7B013B03F007031A43BB689B7B1B0103F030031A43FB685A64E3
:404EC000BB681B7B002B02D04FF4807200E00022BB689B68013B03F00F031A43BB681B78012B02D14FF4803300E000231A43FB68C3F80022BB681B6BDAB2FB68C3F804233C
:404F0000BB6893F82030002B02D04FF0007200E00022BB6893F82130012B02D14FF0807300E000231A43BB6893F82830012B02D14FF4803300E000231A43BB685B6ADBB263
:404F40001A43FB681A65BB689B6BDAB2FB68C3F80422BB685A6B40F66D331340FA68C2F8C83FBB68DA6B40F273731340FA68C2F8883F7B68002B17D07B6800225A607B6878
:404F800000221A607B6800229A607B680022DA607B6800221A627B680022DA627B6800221A637B68044A5A63002318461C37BD4690BD00BFAC920810EFCDAB0080B485B0DC
:404FC00000AF786039603B681B69BB603B685A69BB689A4205D83B685B69BA68D31AFB6007E03B68DA693B685B69D21ABB681344FB60FB6818461437BD465DF8047B7047AD
:4050000080B584B000AF786039607868FFF742FC034603F00803002B4BD07868FFF764FC034603F44873FB60FB68002B11D03B685A68FB681A433B685A60F9687868FFF792
:4050400061FC3B681B6B002B03D03B681B6B102098477868FFF748FC034603F40063002B0AD03B685B6843F400623B685A604FF400617868FFF746FC7868FFF735FC03464A
:4050800003F00103002B14D03B68DB69002B04D03968786800F062F807E03B689B68002B03D03968786800F0CBF801217868FFF729FC7868FFF7EEFB034603F00403002B30
:4050C00048D07868FFF766FC034603F4A063BB60BB68002B11D03B681A68BB681A433B681A60B9687868FFF763FC3B681B6B002B03D03B681B6B202098477868FFF74AFC30
:40510000034603F00103002B07D03968786800F015F901217868FFF74BFC7868FFF73AFC034603F40073002B14D000217868FFF707FC3B681B6823F001023B681A603B68AB
:405140000022DA623B681B6B002B03D03B681B6B0220984700BF1037BD4680BD80B586B000AF786039607868FFF740FC03465B087B613B6899693B68DB691A467868FFF753
:4051800071FC38613B681A6A3B691A443B681A623B68DA693B69D21A3B68DA613B68DB69002B2AD13B689B68002B13D03B68DA687B699A4202D37B69013B02E03B68DB682A
:4051C000013B19467868FFF713FB01217868FFF76FFB03E000217868FFF76AFB3B685B6823F001023B685A603B681B6B002B23D03B681B6B042098471EE03B689B69FB6043
:405200007868FFF707FC0346002B01D03B6901E03B695B00FA681344FB603B68FA689A613B68DA697B699A4206D23B68DB69013B19467868FFF7DCFA00BF1837BD4680BDBE
:4052400090B589B000AF786039607868FFF7CEFB03465B087B617868FFF7ECFAF8613B681B69BB6147E0BB690133BB613B68DA68BB699A4201D10023BB613B685A69BB69F6
:405280009A421BD13B681B6B002B03D03B681B6B082098473B685A69BB699A420ED100217868FFF705FBBB69002B02D0BB69013B02E03B68DB68013BBB611FE07868FFF71D
:4052C00089FA38617868FFF7A5FB0346002B07D03B689A68BB6913443A69D2B21A7007E03B689A68BB695B0013443A6992B21A80FB69013BFB61FB69002BB4D13B68BA6947
:405300001A613B68DC6839687868FFF757FE0346E31AFB61FA697B699A420BD2FB69002B02D0FB69013B00E00023FB60F9687868FFF75EFA00BF2437BD4690BD80B588B0D8
:4053400000AF786039607868FFF750FBF8617868FFF774FB0346FB763B689B6A012B23D93B685B6A7B613B689A6A3B68DA623B68596A3B689B6A013B1A467868FFF790FBEF
:4053800038613B689A6A3B69D21A3B689A62FB7E002B01D03B6901E03B695B007A6913447B613B687A695A627868FFF763FA0246FB699A423CD03B689B6A012B38D13B68E6
:4053C00000229A62FB7E002B03D03B685B6A1B7802E03B685B6A1B88FB60FDF702FBB860F9687868FFF736FA4FF400717868FFF7DFFAB868FDF7F9FA7868FFF7BDFA034625
:4054000023F4007323F0010343F4007319467868FFF796FA3B681B6843F002023B681A603B681B6B002B03D03B681B6B0120984700BF2037BD4680BD80B584B000AFF860CC
:40544000B9607A60244B1B6893F833301A46BB689A4204D840F2E1512048FDF711FA1E4B1B68B3F85A301A46FB681A441A4B1B68B3F85C301946BB6803FB01F313441A46C7
:405480007B68D360144B1B68B3F85A301A46FB681A44114B1B68B3F85C301946BB6803FB01F3134419460C4B1B68B3F85A301A46FB681A44084B1B68B3F85C301846BB68A0
:4054C00003FB00F313449B681B0C1B048B6000BF1037BD4680BD00BF5CD20208EC92081080B584B000AF786039609C4BFB607B68002B00F0EC813B68002B00F0E8813B685D
:405500001B78002B0FD03B681B78012B0BD03B681B78022B07D03B681B78032B03D057218F48FDF7ADF93B685B78002B0FD03B685B78012B0BD03B685B78022B07D03B681D
:405540005B78032B03D058218548FDF799F93B689B78002B0FD03B689B78012B0BD03B689B78022B07D03B689B78032B03D059217B48FDF785F93B681B79002B0FD03B680A
:405580001B79012B0BD03B681B79022B07D03B681B79032B03D05A217148FDF771F93B689B79002B07D03B689B79012B03D05B216B48FDF765F93B68DB79002B07D03B68BF
:4055C000DB79012B03D05C216548FDF759F93B68DB78002B07D03B68DB78012B03D05D215F48FDF74DF93B685B79002B0BD03B685B79012B07D03B685B79022B03D05E21AF
:405600005748FDF73DF93B681B7A002B0FD03B681B7A012B0BD03B681B7A022B07D03B681B7A032B03D05F214D48FDF729F93B681B7803F003023B685B789B0003F00C033F
:405640001A433B689B781B0103F030031A433B681B799B01DBB21A433B689B799B0603F080631A433B68DB79DB0603F000631A433B68DB781B0603F080731A433B685B79D4
:405680001B0703F040531A433B681B7A9B071A437B681A603B68DB681A467B685A603B681B691A467B689A603B681B7A032B00F20B8101A252F823F0C9560810D9560810A8
:4056C00069570810615808103B68DB6A1A467B68DA600023FB60FAE03B685B6913F5006F04DB3B685B69B3F5006F03DB78211C48FDF7C6F83B689B6913F5006F04DB3B68DC
:405700009B69B3F5006F03DB79211548FDF7B8F83B68DB69002B04D03B68DB69B3F5807F03D97A210E48FDF7ABF83B685B69C3F30B023B689B6919030A4B0B401A433B6870
:40574000DB69013B1B061A437B68DA603B68DB6A1A467B681A610023FB60B8E001004E002893081000F0FF003B685B6913F5006F04DB3B685B69B3F5006F03DB87215648E2
:40578000FDF77EF83B689B6913F5006F04DB3B689B69B3F5006F03DB88214F48FDF770F83B68DB69002B04D03B68DB69B3F5807F03D989214848FDF763F83B681B6A13F541
:4057C000006F04DB3B681B6AB3F5006F03DB8A214148FDF755F83B685B6A13F5006F04DB3B685B6AB3F5006F03DB8B213A48FDF747F83B689B6A002B04D03B689B6AB3F556
:40580000807F03D98C213448FDF73AF83B685B69C3F30B023B689B691903304B0B401A433B68DB69013B1B061A437B68DA603B681B6AC3F30B023B685B6A1903274B0B4044
:405840001A433B689B6A013B1B061A437B681A613B68DB6A1A467B685A610023FB6036E01F4B1B6893F82A30012B2FD93B685B6913F5006F04DB3B685B69B3F5006F03DB72
:40588000A1211548FCF7FCFF3B68DB69002B04D03B68DB69B3F5807F03D9A2210E48FCF7EFFF3B685B69C3F30B023B68DB69013B1B061A437B68DA603B68DB6A1A467B687E
:4058C0001A610023FB6001E000BF00E000BFFB6818461037BD4680BD2893081000F0FF005CD2020890B587B000AFF860B9607A60354B7B61FB68002B60D07B68002B5DD063
:405900007B681B68002B59D0304B1B6893F833301A46BB689A4251D97B689B68032B03D9EF212B48FCF7ACFF7B681B681A46B968F868FFF781FD254B1B68B3F85A301A46E4
:40594000FB681A44214B1B68B3F85C301946BB6803FB01F3134418467B681B79002B07D01A4B1B6893F85F301A460123934000E000237A6892681549096891F85E1002FAA4
:4059800001F1124A126892F85E2014460322A2400A401A437B681B7B002B02D04FF0004300E000231A437B685B7B002B01D0042300E000231343036000237B617B691846DE
:4059C0001C37BD4690BD00BF01004E005CD202082893081080B487B000AFF860B9607A60644B7B61FB68002B00F0BD807B68002B00F0B9807B685B681B029AB27B689B6814
:405A00009B0403F480231A437B68DB681B0403F440331A437B681B691B0603F0E0631A437B681B7F002B01D0012300E000231A43F968BB6804339B010B441A607B68DB6866
:405A4000002B08D1FA68BB689B01134403F5847300221A6015E07B68DB68012B09D17B681A68F968BB689B010B4403F584731A6007E0FA68BB689B01134403F58473012250
:405A80001A607B681B69002B11D17B685A69F968BB689B010B4403F586731A607B689A69F968BB689B010B4403F588731A607B681A68F968BB689B010B4403F58A731A6073
:405AC0007B689B6CB3F1FF3F20D07B689B6A03F00F027B681B6B1B0203F470631A437B689B6B1B0403F470231A437B681B6C1B039BB21A437B689B6C1B01DBB21A43F968DF
:405B0000BB689B010B4403F590731A607B685B6A03F003027B68DB6A1B0103F030031A437B685B6B1B0203F440731A437B68DB6B9B01DBB21A437B685B6C9B0003F00C03B8
:405B40001A43F968BB689B010B4403F592731A607B681A6AF968BB689B010B4403F59C731A6000237B617B6918461C37BD465DF8047B70470100B60080B483B000AF7860C4
:405B80007B6803F108027B685A607B684FF0FF329A607B6803F108027B68DA607B6803F108027B681A617B6800221A6000BF0C37BD465DF8047B704780B483B000AF7860E0
:405BC0007B6800221A6100BF0C37BD465DF8047B704700BF80B485B000AF786039607B685B68FB603B68FA685A60FB689A683B689A60FB689B683A685A60FB683A689A60CA
:405C00003B687A681A617B681B685A1C7B681A6000BF1437BD465DF8047B704780B485B000AF786039603B681B68BB60BB68B3F1FF3F03D17B681B69FB600CE07B68083324
:405C4000FB6002E0FB685B68FB60FB685B681A68BB689A42F6D9FB685A683B685A603B685B683A689A603B68FA689A60FB683A685A603B687A681A617B681B685A1C7B68EF
:405C80001A6000BF1437BD465DF8047B704700BF80B485B000AF78607B681B69FB607B685B687A6892689A607B689B687A6852685A60FB685A687B689A4203D17B689A680C
:405CC000FB685A607B6800221A61FB681B685A1EFB681A60FB681B6818461437BD465DF8047B704780B584B000AF786039607B68FB60FB68002B09D14FF03F0383F31188F0
:405D0000BFF36F8FBFF34F8FBB60FEE701F0C2FEFB681A68FB68DB6BF968096C01FB03F31A44FB685A60FB6800229A63FB681A68FB689A60FB681A68FB68DB6B013BF968B2
:405D4000096C01FB03F31A44FB68DA60FB68FF2283F84420FB68FF2283F845203B68002B14D1FB681B69002B1AD0FB681033184601F0B2F80346002B12D00D4B4FF08052ED
:405D80001A60BFF34F8FBFF36F8F09E0FB6810331846FFF7F1FEFB6824331846FFF7ECFE01F0A6FE012318461037BD4680BD00BF04ED00E080B58AB002AFF860B960134647
:405DC000FB71FB68002B09D14FF03F0383F31188BFF36F8FBFF34F8F3B61FEE7BB68002B02D10023FB6104E0FB68BA6802FB03F3FB61FB694833184601F078FFB861BB6944
:405E0000002B0BD0BB6948337B61FA79BB69009313467A69B968F86800F006F8BB6918462037BD4680BD00BF80B584B000AFF860B9607A60FB70BB68002B03D1BB69BA69FD
:405E40001A6002E0BB697A681A60BB69FA68DA63BB69BA681A640121B869FFF743FF00BF1037BD4680BD00BF80B58EB000AFF860B9607A603B6000237B63FB683B633B6B8F
:405E8000002B09D14FF03F0383F31188BFF36F8FBFF34F8FFB61FEE7BB68002B03D13B6B1B6C002B01D1012300E00023002B09D14FF03F0383F31188BFF36F8FBFF34F8F84
:405EC0003B62FEE73B68022B03D13B6BDB6B012B01D1012300E00023002B09D14FF03F0383F31188BFF36F8FBFF34F8F7B62FEE701F090F90346002B02D17B68002B01D133
:405F0000012300E00023002B09D14FF03F0383F31188BFF36F8FBFF34F8FBB62FEE701F0B9FD3B6B9A6B3B6BDB6B9A4202D33B68022B29D13A68B968386B00F0FFF9F86202
:405F40003B6B5B6A002B10D03B6B2433184600F0C3FF0346002B13D03F4B4FF080521A60BFF34F8FBFF36F8F0AE0FB6A002B07D0394B4FF080521A60BFF34F8FBFF36F8F52
:405F800001F0B6FD012363E07B68002B03D101F0AFFD00235CE07B6B002B06D107F11403184600F0FBFF01237B6301F0A1FD00F05BFD01F06FFD3B6B93F844305BB2B3F12D
:405FC000FF3F03D13B6B002283F844203B6B93F845305BB2B3F1FF3F03D13B6B002283F8452001F085FD3A1D07F114031146184600F0EAFF0346002B24D1386B00F088FAF2
:406000000346002B18D03B6B10337A681146184600F014FF386B00F013FA00F033FD0346002B7FF47CAF0C4B4FF080521A60BFF34F8FBFF36F8F72E7386B00F001FA00F0B6
:4060400021FD6CE7386B00F0FBF900F01BFD002318463837BD4680BD04ED00E080B58EB000AFF860B9607A603B60FB683B633B6B002B09D14FF03F0383F31188BFF36F8F2B
:40608000BFF34F8F7B61FEE7BB68002B03D13B6B1B6C002B01D1012300E00023002B09D14FF03F0383F31188BFF36F8FBFF34F8FBB61FEE73B68022B03D13B6BDB6B012B8A
:4060C00001D1012300E00023002B09D14FF03F0383F31188BFF36F8FBFF34F8FFB61FEE701F0B0FDEFF311824FF03F0383F31188BFF36F8FBFF34F8F3A623B613B6ABB62B4
:406100003B6B9A6B3B6BDB6B9A4202D33B68022B2CD13B6B93F8453087F827303A68B968386B00F00BF997F92730B3F1FF3F12D13B6B5B6A002B16D03B6B2433184600F001
:40614000CBFE0346002B0ED07B68002B0BD07B6801221A6007E097F827300133DBB25AB23B6B83F8452001237B6301E000237B63BB6AFB62FB6A83F311887B6B18463837EE
:40618000BD4680BD80B58CB000AFF860B9607A600023FB62FB68BB62BB6A002B09D14FF03F0383F31188BFF36F8FBFF34F8FBB61FEE7BB68002B03D1BB6A1B6C002B01D16E
:4061C000012300E00023002B09D14FF03F0383F31188BFF36F8FBFF34F8FFB61FEE701F019F80346002B02D17B68002B01D1012300E00023002B09D14FF03F0383F311887D
:40620000BFF36F8FBFF34F8F3B62FEE701F042FCBB6A9B6B7B627B6A002B1FD0B968B86A00F0E8F87B6A5A1EBB6A9A63BB6A1B69002B0FD0BB6A1033184600F04DFE0346D7
:40624000002B07D03C4B4FF080521A60BFF34F8FBFF36F8F01F04CFC012369E07B68002B03D101F045FC002362E0FB6A002B06D107F11003184600F091FE0123FB6201F0EA
:4062800037FC00F0F1FB01F005FCBB6A93F844305BB2B3F1FF3F03D1BB6A002283F84420BB6A93F845305BB2B3F1FF3F03D1BB6A002283F8452001F01BFC3A1D07F1100357
:4062C0001146184600F080FE0346002B23D1B86A00F008F90346002B17D0BB6A24337A681146184600F0AAFDB86A00F0A9F800F0C9FB0346002B89D10F4B4FF080521A60E1
:40630000BFF34F8FBFF36F8F80E7B86A00F098F800F0B8FB7AE7B86A00F092F800F0B2FBB86A00F0DFF80346002B3FF46FAF002318463037BD4680BD04ED00E080B586B0C5
:4063400000AFF860B9607A6000233B61FB689B6B7B61FB681B6C002B43D07B68002B19D1FB689868FB681B6C1A46B96801F0E8FFFB689A68FB681B6C1A44FB689A60FB68EC
:406380009A68FB685B689A422BD3FB681A68FB689A6026E0FB68D868FB681B6C1A46B96801F0CEFFFB68DA68FB681B6C5B421A44FB68DA60FB68DA68FB681B689A4207D260
:4063C000FB685A68FB681B6C5B421A44FB68DA607B68022B05D17B69002B02D07B69013B7B617B695A1CFB689A633B6918461837BD4680BD80B582B000AF786039607B687E
:406400001B6C002B18D07B68DA687B681B6C1A447B68DA607B68DA687B685B689A4203D37B681A687B68DA607B68D9687B681B6C1A46386801F084FF00BF0837BD4680BD79
:4064400080B584B000AF786001F024FB7B6893F84530FB7311E07B685B6A002B12D07B682433184600F038FD0346002B01D000F00BFEFB7B013BDBB2FB7397F90F30002B83
:40648000E9DC00E000BF7B68FF2283F8452001F02FFB01F0FFFA7B6893F84430BB7311E07B681B69002B12D07B681033184600F013FD0346002B01D000F0E6FDBB7B013B0C
:4064C000DBB2BB7397F90E30002BE9DC00E000BF7B68FF2283F8442001F00AFB00BF1037BD4680BD80B584B000AF786001F0D2FA7B689B6B002B02D10123FB6001E000234E
:40650000FB6001F0F5FAFB6818461037BD4680BD80B584B000AF786001F0BCFA7B689A6B7B68DB6B9A4202D10123FB6001E00023FB6001F0DDFAFB6818461037BD4680BD93
:4065400080B485B000AF786039600023FB6014E00E4AFB6852F83330002B0BD10B49FB683A6841F83320094AFB68DB0013447A685A6005E0FB680133FB60FB68092BE7D91A
:4065800000BF1437BD465DF8047B7047C0D2020880B586B000AFF860B9607A60FB687B6101F078FA7B6993F844305BB2B3F1FF3F03D17B69002283F844207B6993F8453031
:4065C0005BB2B3F1FF3F03D17B69002283F8452001F08EFA7B699B6B002B06D17B6924337A68B968184600F04DFC7869FFF728FF00BF1837BD4680BD80B58CB004AFF860F0
:40660000B9603B601346FB80FB889B00184601F06DFB78617B69002B0ED0602001F066FBF861FB69002B03D0FB697A691A6305E0786901F0A1FB01E00023FB61FB69002BA4
:4066400013D0FA8800230393FB690293FB6A0193BB6A00933B68B968F86800F00FF8F86900F09CF80123BB6102E04FF0FF33BB61BB6918462037BD4680BD00BF80B588B05E
:4066800000AFF860B9607A603B603B6B186B7B689B001A46A52101F05EFE3B6B1A6B7B6803F18043013B9B001344BB61BB6923F00703BB61BB6903F00703002B09D04FF05B
:4066C0003F0383F31188BFF36F8FBFF34F8F7B61FEE70023FB6112E0BA68FB69134419783A6BFB69134434330A461A70BA68FB6913441B78002B06D0FB690133FB61FB69FF
:406700000F2BE9D900E000BF3B6B002283F84320BB6A062B01D90623BB623B6BBA6ADA623B6B04331846FFF747FA3B6B18331846FFF742FA3B6B3A6B1A61BB6AC3F1070201
:406740003B6B9A613B6B3A6B5A620023FB6109E03A6BFB6910339B00134400225A60FB690133FB61FB69042BF2D93B6B00229A653B6B002283F85C203A68F968B86901F002
:4067800085F802463B6B1A60FB6A002B02D0FB6A3A6B1A6000BF2037BD4680BD80B582B000AF786001F076F92B4B1B6801332A4A13602A4B1B68002B09D1284A7B68136091
:4067C000254B1B68012B10D100F082FC0DE0244B1B68002B09D1214B1B68DA6A7B68DB6A9A4202D81D4A7B6813601E4B1B6801331C4A13607B68DA6A1B4B1B689A4203D9B8
:406800007B68DB6A184A13607B68DA6A13469B0013449B00154A1A447B68043319461046FFF7D8F901F064F90D4B1B68002B0ED00A4B1B68DA6A7B68DB6A9A4207D20C4B79
:406840004FF080521A60BFF34F8FBFF36F8F00BF0837BD4680BD00BFC84F0208C84E0208D44F0208E44F0208D04F0208CC4E020804ED00E080B58AB000AF786039600023D5
:406880007B627B68002B09D14FF03F0383F31188BFF36F8FBFF34F8FFB60FEE73B68002B09D14FF03F0383F31188BFF36F8FBFF34F8F3B61FEE7294B1B68002B09D04FF0D0
:4068C0003F0383F31188BFF36F8FBFF34F8F7B61FEE700F0C9F8224B1B683B627B681A683B681344FB617B681A683B6A9A420BD97B681A68FB699A4211D9FA693B6A9A4210
:406900000DD901237B620AE07B681A68FB699A4203D8FA693B6A9A4201D901237B627B68FA691A607B6A002B06D0FA693B6AD31A0021184600F08CFC00F0A4F8B861BB69EC
:40694000002B07D1074B4FF080521A60BFF34F8FBFF36F8F00BF2837BD4680BDF04F0208CC4F020804ED00E080B584B000AF78600023FB607B68002B16D0134B1B68002BEC
:4069800009D04FF03F0383F31188BFF36F8FBFF34F8FBB60FEE700F067F80021786800F057FC00F06FF8F860FB68002B07D1074B4FF080521A60BFF34F8FBFF36F8F00BFAA
:4069C0001037BD4680BD00BFF04F020804ED00E080B586B002AF1E4B019300230093002380221C491C48FFF707FEF860FB68012B02D100F081FCF860FB68012B15D14FF0AC
:406A00003F0383F31188BFF36F8FBFF34F8F7B60124B4FF0FF321A60114B01221A60114B00221A6000F0BCFF0DE0FB68B3F1FF3F09D14FF03F0383F31188BFF36F8FBFF309
:406A40004F8FBB60FEE700BF1037BD4680BD00BFEC4F020864930810A1700810E84F0208D44F0208CC4F020880B400AF044B1B680133034A136000BFBD465DF8047B70472D
:406A8000F04F020880B584B000AF0023FB600023BB60414B1B68002B09D14FF03F0383F31188BFF36F8FBFF34F8F3B60FEE700F0F1FF394B1B68013B374A1360364B1B683A
:406AC000002B62D1354B1B68002B5ED02FE0344BDB68DB68FB60FB6818331846FFF7D8F8FB6804331846FFF7D3F8FB68DA6A2D4B1B689A4203D9FB68DB6A2A4A1360FB6896
:406B0000DA6A13469B0013449B00274A1A44FB68043319461046FFF75DF8FB68DA6A234B1B68DB6A9A4202D3214B01221A601C4B1B68002BCBD1FB68002B01D000F044FBEC
:406B40001C4B1B687B607B68002B10D000F046F80346002B02D0164B01221A607B68013B7B607B68002BF1D1124B00221A60104B1B68002B09D00123BB600F4B4FF08052A1
:406B80001A60BFF34F8FBFF36F8F00F0B1FFBB6818461037BD4680BDF04F0208C84F0208884F0208D04F0208CC4E0208C84E0208DC4F0208D84F020804ED00E080B483B01D
:406BC00000AF054B1B687B607B6818460C37BD465DF8047B704700BFCC4F020880B586B000AF00237B61494B1B68002B7DD1484B1B6801333B61464A3B6913603B69002B3D
:406C00001FD1444B1B681B68002B09D04FF03F0383F31188BFF36F8FBFF34F8F3B60FEE73C4B1B68FB603C4B1B683A4A13603A4AFB681360394B1B680133384A136000F09B
:406C4000C3FA374B1B683A699A4253D3314B1B681B68002B01D1012300E00023002B04D02F4B4FF0FF321A6044E02A4B1B68DB68DB68BB60BB685B687B603A697B689A42C4
:406C800003D2274A7B68136034E0BB6804331846FEF7FEFFBB689B6A002B04D0BB6818331846FEF7F5FFBB68DA6A1E4B1B689A4203D9BB68DB6A1B4A1360BB68DA6A134693
:406CC0009B0013449B00184A1A44BB68043319461046FEF77FFFBB68DA6A144B1B68DB6A9A42B3D301237B61B0E7114B1B6801330F4A13600F4B1B68002B01D001237B6186
:406D00007B6918461837BD4680BD00BFF04F0208CC4F0208804F0208844F0208E04F0208E84F0208D04F0208CC4E0208C84E0208D84F0208DC4F020880B586B000AF3A4BB3
:406D40001B68002B03D0394B01221A6067E0374B00221A60364B1B681B6B3B614FF0A533FB603B691A68FB689A4211D13B6904331A68FB689A420BD13B6908331A68FB68F1
:406D80009A4205D13B690C331A68FB689A4208D0274B1A68264B1B6834331946104600F08FFF244B1B687B610FE07B69002B09D14FF03F0383F31188BFF36F8FBFF34F8FAD
:406DC0007B60FEE77B69013B7B611B497A6913469B0013449B000B441B68002BE5D07A6913469B0013449B00134A1344BB60BB685B685A68BB685A60BB685A68BB68083398
:406E00009A4204D1BB685B685A68BB685A60BB685B68DB68064A1360064A7B69136000BF1837BD4680BD00BFF04F0208DC4F0208C84E0208D04F0208CC4E020880B584B028
:406E400000AF786039607B68002B09D14FF03F0383F31188BFF36F8FBFF34F8FFB60FEE7074B1B68183319467868FEF7D7FE0121386800F0EDF900BF1037BD4680BD00BF34
:406E8000C84E020880B586B000AFF860B9607A60FB68002B09D14FF03F0383F31188BFF36F8FBFF34F8F7B61FEE70A4B1B6818331946F868FEF78EFE7B68002B02D04FF0D2
:406EC000FF33BB607968B86800F0C2F900BF1837BD4680BDC84E020880B586B000AF78607B68DB68DB683B613B69002B09D14FF03F0383F31188BFF36F8FBFF34F8FFB6060
:406F0000FEE73B6918331846FEF7C2FE1D4B1B68002B1DD13B6904331846FEF7B9FE3B69DA6A194B1B689A4203D93B69DB6A164A13603B69DA6A13469B0013449B00134A13
:406F40001A443B69043319461046FEF743FE05E03B69183319460E48FEF73CFE3B69DA6A0C4B1B68DB6A9A4205D901237B610A4B01221A6001E000237B617B691846183711
:406F8000BD4680BDF04F0208D04F0208CC4E0208884F0208C84E0208DC4F020880B483B000AF7860064B1A687B681A60054B1A687B685A6000BF0C37BD465DF8047B7047A8
:406FC000E04F0208CC4F020880B588B000AF786039607B68002B09D14FF03F0383F31188BFF36F8FBFF34F8FFB60FEE73B68002B09D14FF03F0383F31188BFF36F8FBFF314
:407000004F8F3B61FEE700F045FD1D4B1B68BB617B685B68BA69D31A7B613B681B68B3F1FF3F02D10023FB6123E07B681A68154B1B689A4207D07B685A68BB699A4202D84F
:407040000123FB6115E03B681A687B699A420BD93B681A687B69D21A3B681A607868FFF79DFF0023FB6104E03B6800221A600123FB6100F03DFDFB6918462037BD4680BDA9
:40708000CC4F0208E04F020880B400AF034B01221A6000BFBD465DF8047B7047DC4F020880B582B000AF786000F052F8064B1B68012BF9D9054B4FF080521A60BFF34F8FBD
:4070C000BFF36F8FF0E700BFCC4E020804ED00E080B582B000AF00237B600CE07A6813469B0013449B00124A13441846FEF744FD7B6801337B607B68062BEFD90D48FEF72E
:407100003BFD0D48FEF738FD0C48FEF735FD0C48FEF732FD0B48FEF72FFD0B4B054A1A600A4B054A1A6000BF0837BD4680BD00BFCC4E0208584F02086C4F0208884F02087C
:407140009C4F0208B44F0208804F0208844F020880B582B000AF19E000F09CFC0F4BDB68DB687B607B6804331846FEF791FD0C4B1B68013B0A4A13600A4B1B68013B094AC6
:40718000136000F0B5FC786800F00EF8054B1B68002BE1D100BF0837BD4680BD9C4F0208C84F0208B04F020880B582B000AF78607B681B6B184600F0DFFD786800F0DCFDAE
:4071C00000BF0837BD4680BD80B483B000AF0F4B1B681B68002B01D1012300E00023002B04D00B4B4FF0FF321A6008E0074B1B68DB68DB687B607B685B68054A136000BF33
:407200000C37BD465DF8047B704700BF804F0208E84F020880B483B000AF0B4B1B68002B02D101237B6008E0084B1B68002B02D102237B6001E000237B607B6818460C3799
